{
  "_format": "hh-sol-artifact-1",
  "contractName": "CommunityPrizePool",
  "sourceName": "contracts/CyberjamNFT.sol",
  "abi": [
    {
      "inputs": [
        {
          "internalType": "address",
          "name": "_priceFeedAddress",
          "type": "address"
        },
        {
          "internalType": "address",
          "name": "_nftContractAddress",
          "type": "address"
        },
        {
          "internalType": "address",
          "name": "initialOwner",
          "type": "address"
        }
      ],
      "stateMutability": "nonpayable",
      "type": "constructor"
    },
    {
      "inputs": [],
      "name": "EnforcedPause",
      "type": "error"
    },
    {
      "inputs": [],
      "name": "ExpectedPause",
      "type": "error"
    },
    {
      "inputs": [
        {
          "internalType": "address",
          "name": "owner",
          "type": "address"
        }
      ],
      "name": "OwnableInvalidOwner",
      "type": "error"
    },
    {
      "inputs": [
        {
          "internalType": "address",
          "name": "account",
          "type": "address"
        }
      ],
      "name": "OwnableUnauthorizedAccount",
      "type": "error"
    },
    {
      "inputs": [],
      "name": "ReentrancyGuardReentrantCall",
      "type": "error"
    },
    {
      "anonymous": false,
      "inputs": [
        {
          "indexed": true,
          "internalType": "address",
          "name": "contributor",
          "type": "address"
        },
        {
          "indexed": false,
          "internalType": "uint256",
          "name": "amount",
          "type": "uint256"
        },
        {
          "indexed": false,
          "internalType": "bool",
          "name": "isNFTMinted",
          "type": "bool"
        }
      ],
      "name": "ContributionMade",
      "type": "event"
    },
    {
      "anonymous": false,
      "inputs": [
        {
          "indexed": true,
          "internalType": "address",
          "name": "owner",
          "type": "address"
        },
        {
          "indexed": false,
          "internalType": "uint256",
          "name": "amount",
          "type": "uint256"
        }
      ],
      "name": "FundsWithdrawn",
      "type": "event"
    },
    {
      "anonymous": false,
      "inputs": [
        {
          "indexed": true,
          "internalType": "address",
          "name": "newNFTContract",
          "type": "address"
        }
      ],
      "name": "NFTContractUpdated",
      "type": "event"
    },
    {
      "anonymous": false,
      "inputs": [
        {
          "indexed": false,
          "internalType": "address[]",
          "name": "voters",
          "type": "address[]"
        },
        {
          "indexed": false,
          "internalType": "address[]",
          "name": "teams",
          "type": "address[]"
        },
        {
          "indexed": false,
          "internalType": "uint256[]",
          "name": "votes",
          "type": "uint256[]"
        }
      ],
      "name": "OffChainVotesAdded",
      "type": "event"
    },
    {
      "anonymous": false,
      "inputs": [
        {
          "indexed": true,
          "internalType": "address",
          "name": "previousOwner",
          "type": "address"
        },
        {
          "indexed": true,
          "internalType": "address",
          "name": "newOwner",
          "type": "address"
        }
      ],
      "name": "OwnershipTransferred",
      "type": "event"
    },
    {
      "anonymous": false,
      "inputs": [
        {
          "indexed": false,
          "internalType": "address",
          "name": "account",
          "type": "address"
        }
      ],
      "name": "Paused",
      "type": "event"
    },
    {
      "anonymous": false,
      "inputs": [
        {
          "indexed": true,
          "internalType": "address",
          "name": "newPriceFeed",
          "type": "address"
        }
      ],
      "name": "PriceFeedUpdated",
      "type": "event"
    },
    {
      "anonymous": false,
      "inputs": [
        {
          "indexed": true,
          "internalType": "address",
          "name": "team",
          "type": "address"
        },
        {
          "indexed": false,
          "internalType": "uint256",
          "name": "amount",
          "type": "uint256"
        }
      ],
      "name": "PrizeClaimed",
      "type": "event"
    },
    {
      "anonymous": false,
      "inputs": [],
      "name": "PrizePoolPaused",
      "type": "event"
    },
    {
      "anonymous": false,
      "inputs": [],
      "name": "PrizePoolUnpaused",
      "type": "event"
    },
    {
      "anonymous": false,
      "inputs": [
        {
          "indexed": true,
          "internalType": "address",
          "name": "team",
          "type": "address"
        }
      ],
      "name": "TeamAdded",
      "type": "event"
    },
    {
      "anonymous": false,
      "inputs": [
        {
          "indexed": true,
          "internalType": "address",
          "name": "team",
          "type": "address"
        }
      ],
      "name": "TeamRemoved",
      "type": "event"
    },
    {
      "anonymous": false,
      "inputs": [
        {
          "indexed": false,
          "internalType": "address",
          "name": "account",
          "type": "address"
        }
      ],
      "name": "Unpaused",
      "type": "event"
    },
    {
      "anonymous": false,
      "inputs": [
        {
          "indexed": true,
          "internalType": "address",
          "name": "voter",
          "type": "address"
        },
        {
          "indexed": true,
          "internalType": "address",
          "name": "team",
          "type": "address"
        },
        {
          "indexed": false,
          "internalType": "uint256",
          "name": "votes",
          "type": "uint256"
        }
      ],
      "name": "VoteCast",
      "type": "event"
    },
    {
      "stateMutability": "payable",
      "type": "fallback"
    },
    {
      "inputs": [],
      "name": "MINIMUM_CONTRIBUTION_USD",
      "outputs": [
        {
          "internalType": "uint256",
          "name": "",
          "type": "uint256"
        }
      ],
      "stateMutability": "view",
      "type": "function"
    },
    {
      "inputs": [],
      "name": "OWNER_CONTRIBUTION_USD",
      "outputs": [
        {
          "internalType": "uint256",
          "name": "",
          "type": "uint256"
        }
      ],
      "stateMutability": "view",
      "type": "function"
    },
    {
      "inputs": [
        {
          "internalType": "address",
          "name": "_team",
          "type": "address"
        }
      ],
      "name": "addEligibleTeam",
      "outputs": [],
      "stateMutability": "nonpayable",
      "type": "function"
    },
    {
      "inputs": [
        {
          "internalType": "address",
          "name": "_team",
          "type": "address"
        },
        {
          "internalType": "uint256",
          "name": "_votes",
          "type": "uint256"
        }
      ],
      "name": "castVote",
      "outputs": [],
      "stateMutability": "nonpayable",
      "type": "function"
    },
    {
      "inputs": [
        {
          "internalType": "string",
          "name": "tokenURI",
          "type": "string"
        }
      ],
      "name": "contribute",
      "outputs": [],
      "stateMutability": "payable",
      "type": "function"
    },
    {
      "inputs": [
        {
          "internalType": "address",
          "name": "recipient",
          "type": "address"
        },
        {
          "internalType": "string",
          "name": "tokenURI",
          "type": "string"
        }
      ],
      "name": "contributeAsOwner",
      "outputs": [],
      "stateMutability": "payable",
      "type": "function"
    },
    {
      "inputs": [
        {
          "internalType": "address",
          "name": "",
          "type": "address"
        }
      ],
      "name": "contributorVotes",
      "outputs": [
        {
          "internalType": "uint256",
          "name": "",
          "type": "uint256"
        }
      ],
      "stateMutability": "view",
      "type": "function"
    },
    {
      "inputs": [],
      "name": "distributePrizeByVotes",
      "outputs": [],
      "stateMutability": "nonpayable",
      "type": "function"
    },
    {
      "inputs": [
        {
          "internalType": "address",
          "name": "",
          "type": "address"
        }
      ],
      "name": "eligibleTeams",
      "outputs": [
        {
          "internalType": "bool",
          "name": "",
          "type": "bool"
        }
      ],
      "stateMutability": "view",
      "type": "function"
    },
    {
      "inputs": [
        {
          "internalType": "uint256",
          "name": "ethAmount",
          "type": "uint256"
        }
      ],
      "name": "getConversionRate",
      "outputs": [
        {
          "internalType": "uint256",
          "name": "",
          "type": "uint256"
        }
      ],
      "stateMutability": "view",
      "type": "function"
    },
    {
      "inputs": [],
      "name": "getEligibleTeamCount",
      "outputs": [
        {
          "internalType": "uint256",
          "name": "",
          "type": "uint256"
        }
      ],
      "stateMutability": "view",
      "type": "function"
    },
    {
      "inputs": [
        {
          "internalType": "address",
          "name": "_team",
          "type": "address"
        }
      ],
      "name": "getTeamVotes",
      "outputs": [
        {
          "internalType": "uint256",
          "name": "",
          "type": "uint256"
        }
      ],
      "stateMutability": "view",
      "type": "function"
    },
    {
      "inputs": [],
      "name": "getTotalTeams",
      "outputs": [
        {
          "internalType": "uint256",
          "name": "",
          "type": "uint256"
        }
      ],
      "stateMutability": "view",
      "type": "function"
    },
    {
      "inputs": [],
      "name": "getTotalVotes",
      "outputs": [
        {
          "internalType": "uint256",
          "name": "",
          "type": "uint256"
        }
      ],
      "stateMutability": "view",
      "type": "function"
    },
    {
      "inputs": [
        {
          "internalType": "address",
          "name": "",
          "type": "address"
        }
      ],
      "name": "hasClaimedPrize",
      "outputs": [
        {
          "internalType": "bool",
          "name": "",
          "type": "bool"
        }
      ],
      "stateMutability": "view",
      "type": "function"
    },
    {
      "inputs": [
        {
          "internalType": "address[]",
          "name": "_voters",
          "type": "address[]"
        },
        {
          "internalType": "address[]",
          "name": "_teams",
          "type": "address[]"
        },
        {
          "internalType": "uint256[]",
          "name": "_votes",
          "type": "uint256[]"
        }
      ],
      "name": "inputOffChainVotes",
      "outputs": [],
      "stateMutability": "nonpayable",
      "type": "function"
    },
    {
      "inputs": [
        {
          "internalType": "address",
          "name": "",
          "type": "address"
        }
      ],
      "name": "isContributor",
      "outputs": [
        {
          "internalType": "bool",
          "name": "",
          "type": "bool"
        }
      ],
      "stateMutability": "view",
      "type": "function"
    },
    {
      "inputs": [
        {
          "internalType": "address",
          "name": "",
          "type": "address"
        }
      ],
      "name": "isNFTHolder",
      "outputs": [
        {
          "internalType": "bool",
          "name": "",
          "type": "bool"
        }
      ],
      "stateMutability": "view",
      "type": "function"
    },
    {
      "inputs": [],
      "name": "nftContract",
      "outputs": [
        {
          "internalType": "contract CyberjamNFT",
          "name": "",
          "type": "address"
        }
      ],
      "stateMutability": "view",
      "type": "function"
    },
    {
      "inputs": [],
      "name": "owner",
      "outputs": [
        {
          "internalType": "address",
          "name": "",
          "type": "address"
        }
      ],
      "stateMutability": "view",
      "type": "function"
    },
    {
      "inputs": [],
      "name": "pause",
      "outputs": [],
      "stateMutability": "nonpayable",
      "type": "function"
    },
    {
      "inputs": [],
      "name": "paused",
      "outputs": [
        {
          "internalType": "bool",
          "name": "",
          "type": "bool"
        }
      ],
      "stateMutability": "view",
      "type": "function"
    },
    {
      "inputs": [],
      "name": "prizePool",
      "outputs": [
        {
          "internalType": "uint256",
          "name": "",
          "type": "uint256"
        }
      ],
      "stateMutability": "view",
      "type": "function"
    },
    {
      "inputs": [
        {
          "internalType": "address",
          "name": "_team",
          "type": "address"
        }
      ],
      "name": "removeEligibleTeam",
      "outputs": [],
      "stateMutability": "nonpayable",
      "type": "function"
    },
    {
      "inputs": [],
      "name": "renounceOwnership",
      "outputs": [],
      "stateMutability": "nonpayable",
      "type": "function"
    },
    {
      "inputs": [
        {
          "internalType": "address",
          "name": "",
          "type": "address"
        }
      ],
      "name": "teamVotes",
      "outputs": [
        {
          "internalType": "uint256",
          "name": "",
          "type": "uint256"
        }
      ],
      "stateMutability": "view",
      "type": "function"
    },
    {
      "inputs": [
        {
          "internalType": "address",
          "name": "newOwner",
          "type": "address"
        }
      ],
      "name": "transferOwnership",
      "outputs": [],
      "stateMutability": "nonpayable",
      "type": "function"
    },
    {
      "inputs": [],
      "name": "unpause",
      "outputs": [],
      "stateMutability": "nonpayable",
      "type": "function"
    },
    {
      "inputs": [
        {
          "internalType": "address",
          "name": "_newNFTContract",
          "type": "address"
        }
      ],
      "name": "updateNFTContract",
      "outputs": [],
      "stateMutability": "nonpayable",
      "type": "function"
    },
    {
      "inputs": [
        {
          "internalType": "address",
          "name": "_newPriceFeed",
          "type": "address"
        }
      ],
      "name": "updatePriceFeed",
      "outputs": [],
      "stateMutability": "nonpayable",
      "type": "function"
    },
    {
      "inputs": [],
      "name": "withdrawRemainingFunds",
      "outputs": [],
      "stateMutability": "nonpayable",
      "type": "function"
    },
    {
      "stateMutability": "payable",
      "type": "receive"
    }
  ],
  "bytecode": "0x608060405234801561001057600080fd5b50604051613cd0380380613cd083398181016040528101906100329190610287565b80600073ffffffffffffffffffffffffffffffffffffffff168173ffffffffffffffffffffffffffffffffffffffff16036100a55760006040517f1e4fbdf700000000000000000000000000000000000000000000000000000000815260040161009c91906102e9565b60405180910390fd5b6100b48161016060201b60201c565b5060008060146101000a81548160ff0219169083151502179055506001808190555082600260006101000a81548173ffffffffffffffffffffffffffffffffffffffff021916908373ffffffffffffffffffffffffffffffffffffffff16021790555081600360006101000a81548173ffffffffffffffffffffffffffffffffffffffff021916908373ffffffffffffffffffffffffffffffffffffffff160217905550505050610304565b60008060009054906101000a900473ffffffffffffffffffffffffffffffffffffffff169050816000806101000a81548173ffffffffffffffffffffffffffffffffffffffff021916908373ffffffffffffffffffffffffffffffffffffffff1602179055508173ffffffffffffffffffffffffffffffffffffffff168173ffffffffffffffffffffffffffffffffffffffff167f8be0079c531659141344cd1fd0a4f28419497f9722a3daafe3b4186f6b6457e060405160405180910390a35050565b600080fd5b600073ffffffffffffffffffffffffffffffffffffffff82169050919050565b600061025482610229565b9050919050565b61026481610249565b811461026f57600080fd5b50565b6000815190506102818161025b565b92915050565b6000806000606084860312156102a05761029f610224565b5b60006102ae86828701610272565b93505060206102bf86828701610272565b92505060406102d086828701610272565b9150509250925092565b6102e381610249565b82525050565b60006020820190506102fe60008301846102da565b92915050565b6139bd806103136000396000f3fe6080604052600436106101dc5760003560e01c80637616a95f1161010257806395877f7811610095578063de7cb8e811610064578063de7cb8e81461075a578063ef86ce8e14610785578063f2fde38b1461079c578063ff91bb45146107c55761024d565b806395877f781461069e5780639a0e7d66146106c7578063a52c98b0146106f2578063d56d229d1461072f5761024d565b80638456cb59116100d15780638456cb59146106085780638c20cad01461061f5780638da5cb5b1461064a57806391483ec2146106755761024d565b80637616a95f14610549578063763b3dde1461058657806378627f2b146105a25780637c8c34c6146105cb5761024d565b806342f216671161017a5780635c975abb116101495780635c975abb1461049f5780636e5b6b28146104ca578063715018a614610507578063719ce73e1461051e5761024d565b806342f2166714610418578063466e6b6c1461042f5780635332bbf6146104585780635c43217b146104835761024d565b80632e5b104c116101b65780632e5b104c146103705780632ef90d301461039b5780633b7f5ee0146103d85780633f4ba83a146104015761024d565b8063039213a8146102b957806313747c8b146102f65780631d0d35f5146103335761024d565b3661024d5734600460008282546101f391906126e3565b925050819055503373ffffffffffffffffffffffffffffffffffffffff167f33dd7dd8ca04986102b95c1af4ac62d3818cc34f9848764c954d29dc944ce778346000604051610243929190612741565b60405180910390a2005b346004600082825461025f91906126e3565b925050819055503373ffffffffffffffffffffffffffffffffffffffff167f33dd7dd8ca04986102b95c1af4ac62d3818cc34f9848764c954d29dc944ce7783460006040516102af929190612741565b60405180910390a2005b3480156102c557600080fd5b506102e060048036038101906102db91906127dc565b6107ee565b6040516102ed9190612809565b60405180910390f35b34801561030257600080fd5b5061031d600480360381019061031891906127dc565b61080e565b60405161032a9190612824565b60405180910390f35b34801561033f57600080fd5b5061035a600480360381019061035591906127dc565b610826565b6040516103679190612809565b60405180910390f35b34801561037c57600080fd5b50610385610846565b6040516103929190612824565b60405180910390f35b3480156103a757600080fd5b506103c260048036038101906103bd91906127dc565b61084b565b6040516103cf9190612824565b60405180910390f35b3480156103e457600080fd5b506103ff60048036038101906103fa9190612a87565b610863565b005b34801561040d57600080fd5b50610416610af9565b005b34801561042457600080fd5b5061042d610b37565b005b34801561043b57600080fd5b50610456600480360381019061045191906127dc565b610ef5565b005b34801561046457600080fd5b5061046d6111ae565b60405161047a9190612824565b60405180910390f35b61049d60048036038101906104989190612be3565b61130d565b005b3480156104ab57600080fd5b506104b4611656565b6040516104c19190612809565b60405180910390f35b3480156104d657600080fd5b506104f160048036038101906104ec9190612c2c565b61166c565b6040516104fe9190612824565b60405180910390f35b34801561051357600080fd5b5061051c611743565b005b34801561052a57600080fd5b50610533611757565b6040516105409190612824565b60405180910390f35b34801561055557600080fd5b50610570600480360381019061056b91906127dc565b61175d565b60405161057d9190612809565b60405180910390f35b6105a0600480360381019061059b9190612c59565b61177d565b005b3480156105ae57600080fd5b506105c960048036038101906105c491906127dc565b611a5b565b005b3480156105d757600080fd5b506105f260048036038101906105ed91906127dc565b611aea565b6040516105ff9190612824565b60405180910390f35b34801561061457600080fd5b5061061d611b33565b005b34801561062b57600080fd5b50610634611b71565b6040516106419190612824565b60405180910390f35b34801561065657600080fd5b5061065f611b7e565b60405161066c9190612cc4565b60405180910390f35b34801561068157600080fd5b5061069c600480360381019061069791906127dc565b611ba7565b005b3480156106aa57600080fd5b506106c560048036038101906106c091906127dc565b611d3d565b005b3480156106d357600080fd5b506106dc611dcc565b6040516106e99190612824565b60405180910390f35b3480156106fe57600080fd5b50610719600480360381019061071491906127dc565b611e83565b6040516107269190612809565b60405180910390f35b34801561073b57600080fd5b50610744611ea3565b6040516107519190612d3e565b60405180910390f35b34801561076657600080fd5b5061076f611ec9565b60405161077c9190612824565b60405180910390f35b34801561079157600080fd5b5061079a611ecf565b005b3480156107a857600080fd5b506107c360048036038101906107be91906127dc565b612085565b005b3480156107d157600080fd5b506107ec60048036038101906107e79190612d59565b61210b565b005b600a6020528060005260406000206000915054906101000a900460ff1681565b60096020528060005260406000206000915090505481565b600b6020528060005260406000206000915054906101000a900460ff1681565b60fa81565b60086020528060005260406000206000915090505481565b61086b6123c2565b8151835114801561087d575080518251145b6108bc576040517f08c379a00000000000000000000000000000000000000000000000000000000081526004016108b390612e1c565b60405180910390fd5b60005b8351811015610ab857600660008483815181106108df576108de612e3c565b5b602002602001015173ffffffffffffffffffffffffffffffffffffffff1673ffffffffffffffffffffffffffffffffffffffff16815260200190815260200160002060009054906101000a900460ff1661096e576040517f08c379a000000000000000000000000000000000000000000000000000000000815260040161096590612eb7565b60405180910390fd5b81818151811061098157610980612e3c565b5b6020026020010151600960008584815181106109a05761099f612e3c565b5b602002602001015173ffffffffffffffffffffffffffffffffffffffff1673ffffffffffffffffffffffffffffffffffffffff16815260200190815260200160002060008282546109f191906126e3565b92505081905550828181518110610a0b57610a0a612e3c565b5b602002602001015173ffffffffffffffffffffffffffffffffffffffff16848281518110610a3c57610a3b612e3c565b5b602002602001015173ffffffffffffffffffffffffffffffffffffffff167f484413c33463e7d976e3ded2a85b0c31610d0906977df2cd9cbd6d12a6872a84848481518110610a8e57610a8d612e3c565b5b6020026020010151604051610aa39190612824565b60405180910390a380806001019150506108bf565b507f2418bc566a3b971fc889c3fd633089c17b8ba3cf655bacc1efc5d848ec32406f838383604051610aec93929190613053565b60405180910390a1505050565b610b016123c2565b610b09612449565b7f32d6bd0ae033ae812af9b151b8aafc45ae7d7c84c10f25b2c3d27f71ad96aa0d60405160405180910390a1565b610b3f6123c2565b610b476124ab565b610b4f6124ec565b6000610b59611dcc565b905060008111610b9e576040517f08c379a0000000000000000000000000000000000000000000000000000000008152600401610b95906130eb565b60405180910390fd5b600060058054905011610be6576040517f08c379a0000000000000000000000000000000000000000000000000000000008152600401610bdd90613157565b60405180910390fd5b60005b600580549050811015610ee957600060058281548110610c0c57610c0b612e3c565b5b9060005260206000200160009054906101000a900473ffffffffffffffffffffffffffffffffffffffff169050600660008273ffffffffffffffffffffffffffffffffffffffff1673ffffffffffffffffffffffffffffffffffffffff16815260200190815260200160002060009054906101000a900460ff168015610cdc5750600760008273ffffffffffffffffffffffffffffffffffffffff1673ffffffffffffffffffffffffffffffffffffffff16815260200190815260200160002060009054906101000a900460ff16155b15610edb576000600960008373ffffffffffffffffffffffffffffffffffffffff1673ffffffffffffffffffffffffffffffffffffffff16815260200190815260200160002054905060008482600454610d369190613177565b610d4091906131e8565b90506001600760008573ffffffffffffffffffffffffffffffffffffffff1673ffffffffffffffffffffffffffffffffffffffff16815260200190815260200160002060006101000a81548160ff02191690831515021790555080471015610ddd576040517f08c379a0000000000000000000000000000000000000000000000000000000008152600401610dd490613265565b60405180910390fd5b60008373ffffffffffffffffffffffffffffffffffffffff1682604051610e03906132b6565b60006040518083038185875af1925050503d8060008114610e40576040519150601f19603f3d011682016040523d82523d6000602084013e610e45565b606091505b5050905080610e89576040517f08c379a0000000000000000000000000000000000000000000000000000000008152600401610e8090613317565b60405180910390fd5b8373ffffffffffffffffffffffffffffffffffffffff167f95681e512bc0fe659e195e06c283eada494316f3d801213e48e7101af92bf77083604051610ecf9190612824565b60405180910390a25050505b508080600101915050610be9565b5050610ef3612532565b565b610efd6123c2565b600660008273ffffffffffffffffffffffffffffffffffffffff1673ffffffffffffffffffffffffffffffffffffffff16815260200190815260200160002060009054906101000a900460ff16610f89576040517f08c379a0000000000000000000000000000000000000000000000000000000008152600401610f8090613383565b60405180910390fd5b6000600660008373ffffffffffffffffffffffffffffffffffffffff1673ffffffffffffffffffffffffffffffffffffffff16815260200190815260200160002060006101000a81548160ff02191690831515021790555060005b600580549050811015611167578173ffffffffffffffffffffffffffffffffffffffff166005828154811061101c5761101b612e3c565b5b9060005260206000200160009054906101000a900473ffffffffffffffffffffffffffffffffffffffff1673ffffffffffffffffffffffffffffffffffffffff160361115a576005600160058054905061107691906133a3565b8154811061108757611086612e3c565b5b9060005260206000200160009054906101000a900473ffffffffffffffffffffffffffffffffffffffff16600582815481106110c6576110c5612e3c565b5b9060005260206000200160006101000a81548173ffffffffffffffffffffffffffffffffffffffff021916908373ffffffffffffffffffffffffffffffffffffffff16021790555060058054806111205761111f6133d7565b5b6001900381819060005260206000200160006101000a81549073ffffffffffffffffffffffffffffffffffffffff02191690559055611167565b8080600101915050610fe4565b508073ffffffffffffffffffffffffffffffffffffffff167f26b6063d78aefcf96f02ff06bc9822b5a623278253add7fffa5fb453db39981060405160405180910390a250565b6000806000905060005b6005805490508110156113055760066000600583815481106111dd576111dc612e3c565b5b9060005260206000200160009054906101000a900473ffffffffffffffffffffffffffffffffffffffff1673ffffffffffffffffffffffffffffffffffffffff1673ffffffffffffffffffffffffffffffffffffffff16815260200190815260200160002060009054906101000a900460ff1680156112e45750600760006005838154811061126f5761126e612e3c565b5b9060005260206000200160009054906101000a900473ffffffffffffffffffffffffffffffffffffffff1673ffffffffffffffffffffffffffffffffffffffff1673ffffffffffffffffffffffffffffffffffffffff16815260200190815260200160002060009054906101000a900460ff16155b156112f85781806112f490613406565b9250505b80806001019150506111b8565b508091505090565b6113156124ab565b61131d6124ec565b60003411611360576040517f08c379a0000000000000000000000000000000000000000000000000000000008152600401611357906134c0565b60405180910390fd5b600061136b3461166c565b9050346004600082825461137f91906126e3565b92505081905550670de0b6b3a76400006101f461139c9190613177565b81106115a057600360009054906101000a900473ffffffffffffffffffffffffffffffffffffffff1673ffffffffffffffffffffffffffffffffffffffff1663eacabe1433846040518363ffffffff1660e01b81526004016113ff92919061354e565b6020604051808303816000875af115801561141e573d6000803e3d6000fd5b505050506040513d601f19601f820116820180604052508101906114429190613593565b506001600a60003373ffffffffffffffffffffffffffffffffffffffff1673ffffffffffffffffffffffffffffffffffffffff16815260200190815260200160002060006101000a81548160ff0219169083151502179055506001600b60003373ffffffffffffffffffffffffffffffffffffffff1673ffffffffffffffffffffffffffffffffffffffff16815260200190815260200160002060006101000a81548160ff0219169083151502179055506005600860003373ffffffffffffffffffffffffffffffffffffffff1673ffffffffffffffffffffffffffffffffffffffff168152602001908152602001600020600082825461154391906126e3565b925050819055503373ffffffffffffffffffffffffffffffffffffffff167f33dd7dd8ca04986102b95c1af4ac62d3818cc34f9848764c954d29dc944ce778346001604051611593929190612741565b60405180910390a261164a565b6001600b60003373ffffffffffffffffffffffffffffffffffffffff1673ffffffffffffffffffffffffffffffffffffffff16815260200190815260200160002060006101000a81548160ff0219169083151502179055503373ffffffffffffffffffffffffffffffffffffffff167f33dd7dd8ca04986102b95c1af4ac62d3818cc34f9848764c954d29dc944ce778346000604051611641929190612741565b60405180910390a25b50611653612532565b50565b60008060149054906101000a900460ff16905090565b600080600260009054906101000a900473ffffffffffffffffffffffffffffffffffffffff1673ffffffffffffffffffffffffffffffffffffffff1663feaf968c6040518163ffffffff1660e01b815260040160a060405180830381865afa1580156116dc573d6000803e3d6000fd5b505050506040513d601f19601f820116820180604052508101906117009190613638565b50505091505060006402540be400826117199190613177565b9050670de0b6b3a764000081856117309190613177565b61173a91906131e8565b92505050919050565b61174b6123c2565b611755600061253b565b565b60045481565b60066020528060005260406000206000915054906101000a900460ff1681565b6117856123c2565b61178d6124ab565b6117956124ec565b600034116117d8576040517f08c379a00000000000000000000000000000000000000000000000000000000081526004016117cf906134c0565b60405180910390fd5b60006117e33461166c565b9050670de0b6b3a764000060fa6117fa9190613177565b81101561183c576040517f08c379a000000000000000000000000000000000000000000000000000000000815260040161183390613725565b60405180910390fd5b346004600082825461184e91906126e3565b92505081905550600360009054906101000a900473ffffffffffffffffffffffffffffffffffffffff1673ffffffffffffffffffffffffffffffffffffffff1663eacabe1484846040518363ffffffff1660e01b81526004016118b292919061354e565b6020604051808303816000875af11580156118d1573d6000803e3d6000fd5b505050506040513d601f19601f820116820180604052508101906118f59190613593565b506001600a60008573ffffffffffffffffffffffffffffffffffffffff1673ffffffffffffffffffffffffffffffffffffffff16815260200190815260200160002060006101000a81548160ff0219169083151502179055506001600b60008573ffffffffffffffffffffffffffffffffffffffff1673ffffffffffffffffffffffffffffffffffffffff16815260200190815260200160002060006101000a81548160ff0219169083151502179055506005600860008573ffffffffffffffffffffffffffffffffffffffff1673ffffffffffffffffffffffffffffffffffffffff16815260200190815260200160002060008282546119f691906126e3565b925050819055508273ffffffffffffffffffffffffffffffffffffffff167f33dd7dd8ca04986102b95c1af4ac62d3818cc34f9848764c954d29dc944ce778346001604051611a46929190612741565b60405180910390a250611a57612532565b5050565b611a636123c2565b80600360006101000a81548173ffffffffffffffffffffffffffffffffffffffff021916908373ffffffffffffffffffffffffffffffffffffffff1602179055508073ffffffffffffffffffffffffffffffffffffffff167ff2610996d245d9b77e4ff84c2174eea0b76fb44c422218404f66e28816d78fb960405160405180910390a250565b6000600960008373ffffffffffffffffffffffffffffffffffffffff1673ffffffffffffffffffffffffffffffffffffffff168152602001908152602001600020549050919050565b611b3b6123c2565b611b436125ff565b7ff3b2d221c0f5363234765bde11870dfdd7c91ed2e0885abc6da6c34c04dd247d60405160405180910390a1565b6000600580549050905090565b60008060009054906101000a900473ffffffffffffffffffffffffffffffffffffffff16905090565b611baf6123c2565b600660008273ffffffffffffffffffffffffffffffffffffffff1673ffffffffffffffffffffffffffffffffffffffff16815260200190815260200160002060009054906101000a900460ff1615611c3c576040517f08c379a0000000000000000000000000000000000000000000000000000000008152600401611c3390613791565b60405180910390fd5b6001600660008373ffffffffffffffffffffffffffffffffffffffff1673ffffffffffffffffffffffffffffffffffffffff16815260200190815260200160002060006101000a81548160ff0219169083151502179055506005819080600181540180825580915050600190039060005260206000200160009091909190916101000a81548173ffffffffffffffffffffffffffffffffffffffff021916908373ffffffffffffffffffffffffffffffffffffffff1602179055508073ffffffffffffffffffffffffffffffffffffffff167f3f5f1db80208f0d453083a86e16909cecc1e95e2618d5d927c93ace22b8200fc60405160405180910390a250565b611d456123c2565b80600260006101000a81548173ffffffffffffffffffffffffffffffffffffffff021916908373ffffffffffffffffffffffffffffffffffffffff1602179055508073ffffffffffffffffffffffffffffffffffffffff167fe5b20b8497e4f3e2435ef9c20e2e26b47497ee13745ce1c681ad6640653119e660405160405180910390a250565b6000806000905060005b600580549050811015611e7b576009600060058381548110611dfb57611dfa612e3c565b5b9060005260206000200160009054906101000a900473ffffffffffffffffffffffffffffffffffffffff1673ffffffffffffffffffffffffffffffffffffffff1673ffffffffffffffffffffffffffffffffffffffff1681526020019081526020016000205482611e6c91906126e3565b91508080600101915050611dd6565b508091505090565b60076020528060005260406000206000915054906101000a900460ff1681565b600360009054906101000a900473ffffffffffffffffffffffffffffffffffffffff1681565b6101f481565b611ed76123c2565b611edf6124ec565b6000611ee96111ae565b14611f29576040517f08c379a0000000000000000000000000000000000000000000000000000000008152600401611f2090613823565b60405180910390fd5b600047905060008111611f71576040517f08c379a0000000000000000000000000000000000000000000000000000000008152600401611f689061388f565b60405180910390fd5b6000611f7b611b7e565b73ffffffffffffffffffffffffffffffffffffffff1682604051611f9e906132b6565b60006040518083038185875af1925050503d8060008114611fdb576040519150601f19603f3d011682016040523d82523d6000602084013e611fe0565b606091505b5050905080612024576040517f08c379a000000000000000000000000000000000000000000000000000000000815260040161201b90613317565b60405180910390fd5b61202c611b7e565b73ffffffffffffffffffffffffffffffffffffffff167feaff4b37086828766ad3268786972c0cd24259d4c87a80f9d3963a3c3d999b0d836040516120719190612824565b60405180910390a25050612083612532565b565b61208d6123c2565b600073ffffffffffffffffffffffffffffffffffffffff168173ffffffffffffffffffffffffffffffffffffffff16036120ff5760006040517f1e4fbdf70000000000000000000000000000000000000000000000000000000081526004016120f69190612cc4565b60405180910390fd5b6121088161253b565b50565b6121136124ab565b600a60003373ffffffffffffffffffffffffffffffffffffffff1673ffffffffffffffffffffffffffffffffffffffff16815260200190815260200160002060009054906101000a900460ff1661219f576040517f08c379a0000000000000000000000000000000000000000000000000000000008152600401612196906138fb565b60405180910390fd5b600660008373ffffffffffffffffffffffffffffffffffffffff1673ffffffffffffffffffffffffffffffffffffffff16815260200190815260200160002060009054906101000a900460ff1661222b576040517f08c379a000000000000000000000000000000000000000000000000000000000815260040161222290612eb7565b60405180910390fd5b80600860003373ffffffffffffffffffffffffffffffffffffffff1673ffffffffffffffffffffffffffffffffffffffff1681526020019081526020016000205410156122ad576040517f08c379a00000000000000000000000000000000000000000000000000000000081526004016122a490613967565b60405180910390fd5b80600860003373ffffffffffffffffffffffffffffffffffffffff1673ffffffffffffffffffffffffffffffffffffffff16815260200190815260200160002060008282546122fc91906133a3565b9250508190555080600960008473ffffffffffffffffffffffffffffffffffffffff1673ffffffffffffffffffffffffffffffffffffffff168152602001908152602001600020600082825461235291906126e3565b925050819055508173ffffffffffffffffffffffffffffffffffffffff163373ffffffffffffffffffffffffffffffffffffffff167f484413c33463e7d976e3ded2a85b0c31610d0906977df2cd9cbd6d12a6872a84836040516123b69190612824565b60405180910390a35050565b6123ca612662565b73ffffffffffffffffffffffffffffffffffffffff166123e8611b7e565b73ffffffffffffffffffffffffffffffffffffffff16146124475761240b612662565b6040517f118cdaa700000000000000000000000000000000000000000000000000000000815260040161243e9190612cc4565b60405180910390fd5b565b61245161266a565b60008060146101000a81548160ff0219169083151502179055507f5db9ee0a495bf2e6ff9c91a7834c1ba4fdd244a5e8aa4e537bd38aeae4b073aa612494612662565b6040516124a19190612cc4565b60405180910390a1565b6124b3611656565b156124ea576040517fd93c066500000000000000000000000000000000000000000000000000000000815260040160405180910390fd5b565b600260015403612528576040517f3ee5aeb500000000000000000000000000000000000000000000000000000000815260040160405180910390fd5b6002600181905550565b60018081905550565b60008060009054906101000a900473ffffffffffffffffffffffffffffffffffffffff169050816000806101000a81548173ffffffffffffffffffffffffffffffffffffffff021916908373ffffffffffffffffffffffffffffffffffffffff1602179055508173ffffffffffffffffffffffffffffffffffffffff168173ffffffffffffffffffffffffffffffffffffffff167f8be0079c531659141344cd1fd0a4f28419497f9722a3daafe3b4186f6b6457e060405160405180910390a35050565b6126076124ab565b6001600060146101000a81548160ff0219169083151502179055507f62e78cea01bee320cd4e420270b5ea74000d11b0c9f74754ebdbfc544b05a25861264b612662565b6040516126589190612cc4565b60405180910390a1565b600033905090565b612672611656565b6126a8576040517f8dfc202b00000000000000000000000000000000000000000000000000000000815260040160405180910390fd5b565b6000819050919050565b7f4e487b7100000000000000000000000000000000000000000000000000000000600052601160045260246000fd5b60006126ee826126aa565b91506126f9836126aa565b9250828201905080821115612711576127106126b4565b5b92915050565b612720816126aa565b82525050565b60008115159050919050565b61273b81612726565b82525050565b60006040820190506127566000830185612717565b6127636020830184612732565b9392505050565b6000604051905090565b600080fd5b600080fd5b600073ffffffffffffffffffffffffffffffffffffffff82169050919050565b60006127a98261277e565b9050919050565b6127b98161279e565b81146127c457600080fd5b50565b6000813590506127d6816127b0565b92915050565b6000602082840312156127f2576127f1612774565b5b6000612800848285016127c7565b91505092915050565b600060208201905061281e6000830184612732565b92915050565b60006020820190506128396000830184612717565b92915050565b600080fd5b6000601f19601f8301169050919050565b7f4e487b7100000000000000000000000000000000000000000000000000000000600052604160045260246000fd5b61288d82612844565b810181811067ffffffffffffffff821117156128ac576128ab612855565b5b80604052505050565b60006128bf61276a565b90506128cb8282612884565b919050565b600067ffffffffffffffff8211156128eb576128ea612855565b5b602082029050602081019050919050565b600080fd5b600061291461290f846128d0565b6128b5565b90508083825260208201905060208402830185811115612937576129366128fc565b5b835b81811015612960578061294c88826127c7565b845260208401935050602081019050612939565b5050509392505050565b600082601f83011261297f5761297e61283f565b5b813561298f848260208601612901565b91505092915050565b600067ffffffffffffffff8211156129b3576129b2612855565b5b602082029050602081019050919050565b6129cd816126aa565b81146129d857600080fd5b50565b6000813590506129ea816129c4565b92915050565b6000612a036129fe84612998565b6128b5565b90508083825260208201905060208402830185811115612a2657612a256128fc565b5b835b81811015612a4f5780612a3b88826129db565b845260208401935050602081019050612a28565b5050509392505050565b600082601f830112612a6e57612a6d61283f565b5b8135612a7e8482602086016129f0565b91505092915050565b600080600060608486031215612aa057612a9f612774565b5b600084013567ffffffffffffffff811115612abe57612abd612779565b5b612aca8682870161296a565b935050602084013567ffffffffffffffff811115612aeb57612aea612779565b5b612af78682870161296a565b925050604084013567ffffffffffffffff811115612b1857612b17612779565b5b612b2486828701612a59565b9150509250925092565b600080fd5b600067ffffffffffffffff821115612b4e57612b4d612855565b5b612b5782612844565b9050602081019050919050565b82818337600083830152505050565b6000612b86612b8184612b33565b6128b5565b905082815260208101848484011115612ba257612ba1612b2e565b5b612bad848285612b64565b509392505050565b600082601f830112612bca57612bc961283f565b5b8135612bda848260208601612b73565b91505092915050565b600060208284031215612bf957612bf8612774565b5b600082013567ffffffffffffffff811115612c1757612c16612779565b5b612c2384828501612bb5565b91505092915050565b600060208284031215612c4257612c41612774565b5b6000612c50848285016129db565b91505092915050565b60008060408385031215612c7057612c6f612774565b5b6000612c7e858286016127c7565b925050602083013567ffffffffffffffff811115612c9f57612c9e612779565b5b612cab85828601612bb5565b9150509250929050565b612cbe8161279e565b82525050565b6000602082019050612cd96000830184612cb5565b92915050565b6000819050919050565b6000612d04612cff612cfa8461277e565b612cdf565b61277e565b9050919050565b6000612d1682612ce9565b9050919050565b6000612d2882612d0b565b9050919050565b612d3881612d1d565b82525050565b6000602082019050612d536000830184612d2f565b92915050565b60008060408385031215612d7057612d6f612774565b5b6000612d7e858286016127c7565b9250506020612d8f858286016129db565b9150509250929050565b600082825260208201905092915050565b7f496e70757420617272617973206d7573742068617665207468652073616d652060008201527f6c656e6774680000000000000000000000000000000000000000000000000000602082015250565b6000612e06602683612d99565b9150612e1182612daa565b604082019050919050565b60006020820190508181036000830152612e3581612df9565b9050919050565b7f4e487b7100000000000000000000000000000000000000000000000000000000600052603260045260246000fd5b7f496e76616c6964207465616d0000000000000000000000000000000000000000600082015250565b6000612ea1600c83612d99565b9150612eac82612e6b565b602082019050919050565b60006020820190508181036000830152612ed081612e94565b9050919050565b600081519050919050565b600082825260208201905092915050565b6000819050602082019050919050565b612f0c8161279e565b82525050565b6000612f1e8383612f03565b60208301905092915050565b6000602082019050919050565b6000612f4282612ed7565b612f4c8185612ee2565b9350612f5783612ef3565b8060005b83811015612f88578151612f6f8882612f12565b9750612f7a83612f2a565b925050600181019050612f5b565b5085935050505092915050565b600081519050919050565b600082825260208201905092915050565b6000819050602082019050919050565b612fca816126aa565b82525050565b6000612fdc8383612fc1565b60208301905092915050565b6000602082019050919050565b600061300082612f95565b61300a8185612fa0565b935061301583612fb1565b8060005b8381101561304657815161302d8882612fd0565b975061303883612fe8565b925050600181019050613019565b5085935050505092915050565b6000606082019050818103600083015261306d8186612f37565b905081810360208301526130818185612f37565b905081810360408301526130958184612ff5565b9050949350505050565b7f4e6f20766f746573206361737400000000000000000000000000000000000000600082015250565b60006130d5600d83612d99565b91506130e08261309f565b602082019050919050565b60006020820190508181036000830152613104816130c8565b9050919050565b7f4e6f207465616d73207265676973746572656400000000000000000000000000600082015250565b6000613141601383612d99565b915061314c8261310b565b602082019050919050565b6000602082019050818103600083015261317081613134565b9050919050565b6000613182826126aa565b915061318d836126aa565b925082820261319b816126aa565b915082820484148315176131b2576131b16126b4565b5b5092915050565b7f4e487b7100000000000000000000000000000000000000000000000000000000600052601260045260246000fd5b60006131f3826126aa565b91506131fe836126aa565b92508261320e5761320d6131b9565b5b828204905092915050565b7f496e73756666696369656e742066756e64730000000000000000000000000000600082015250565b600061324f601283612d99565b915061325a82613219565b602082019050919050565b6000602082019050818103600083015261327e81613242565b9050919050565b600081905092915050565b50565b60006132a0600083613285565b91506132ab82613290565b600082019050919050565b60006132c182613293565b9150819050919050565b7f5472616e73666572206661696c65640000000000000000000000000000000000600082015250565b6000613301600f83612d99565b915061330c826132cb565b602082019050919050565b60006020820190508181036000830152613330816132f4565b9050919050565b7f5465616d206973206e6f7420656c696769626c65000000000000000000000000600082015250565b600061336d601483612d99565b915061337882613337565b602082019050919050565b6000602082019050818103600083015261339c81613360565b9050919050565b60006133ae826126aa565b91506133b9836126aa565b92508282039050818111156133d1576133d06126b4565b5b92915050565b7f4e487b7100000000000000000000000000000000000000000000000000000000600052603160045260246000fd5b6000613411826126aa565b91507fffffffffffffffffffffffffffffffffffffffffffffffffffffffffffffffff8203613443576134426126b4565b5b600182019050919050565b7f436f6e747269627574696f6e206d75737420626520677265617465722074686160008201527f6e20300000000000000000000000000000000000000000000000000000000000602082015250565b60006134aa602383612d99565b91506134b58261344e565b604082019050919050565b600060208201905081810360008301526134d98161349d565b9050919050565b600081519050919050565b60005b838110156135095780820151818401526020810190506134ee565b60008484015250505050565b6000613520826134e0565b61352a8185612d99565b935061353a8185602086016134eb565b61354381612844565b840191505092915050565b60006040820190506135636000830185612cb5565b81810360208301526135758184613515565b90509392505050565b60008151905061358d816129c4565b92915050565b6000602082840312156135a9576135a8612774565b5b60006135b78482850161357e565b91505092915050565b600069ffffffffffffffffffff82169050919050565b6135df816135c0565b81146135ea57600080fd5b50565b6000815190506135fc816135d6565b92915050565b6000819050919050565b61361581613602565b811461362057600080fd5b50565b6000815190506136328161360c565b92915050565b600080600080600060a0868803121561365457613653612774565b5b6000613662888289016135ed565b955050602061367388828901613623565b94505060406136848882890161357e565b93505060606136958882890161357e565b92505060806136a6888289016135ed565b9150509295509295909350565b7f4f776e6572277320636f6e747269627574696f6e206d7573742062652061742060008201527f6c65617374203235302055534400000000000000000000000000000000000000602082015250565b600061370f602d83612d99565b915061371a826136b3565b604082019050919050565b6000602082019050818103600083015261373e81613702565b9050919050565b7f5465616d20616c726561647920656c696769626c650000000000000000000000600082015250565b600061377b601583612d99565b915061378682613745565b602082019050919050565b600060208201905081810360008301526137aa8161376e565b9050919050565b7f4e6f7420616c6c207465616d73206861766520636c61696d656420746865697260008201527f207072697a657300000000000000000000000000000000000000000000000000602082015250565b600061380d602783612d99565b9150613818826137b1565b604082019050919050565b6000602082019050818103600083015261383c81613800565b9050919050565b7f4e6f2066756e647320746f207769746864726177000000000000000000000000600082015250565b6000613879601483612d99565b915061388482613843565b602082019050919050565b600060208201905081810360008301526138a88161386c565b9050919050565b7f4f6e6c79204e465420686f6c646572732063616e20766f746500000000000000600082015250565b60006138e5601983612d99565b91506138f0826138af565b602082019050919050565b60006020820190508181036000830152613914816138d8565b9050919050565b7f4e6f7420656e6f75676820766f74657300000000000000000000000000000000600082015250565b6000613951601083612d99565b915061395c8261391b565b602082019050919050565b6000602082019050818103600083015261398081613944565b905091905056fea2646970667358221220c777b5cdd8e4840db490943e2458f0009f1ae0c0e269f06e79192fa2533cc3c264736f6c634300081a0033",
  "linkReferences": {},
  "deployedLinkReferences": {}
}