{
  "_format": "hh-sol-artifact-1",
  "contractName": "CyberjamNFT",
  "sourceName": "contracts/CyberjamNFT.sol",
  "abi": [
    {
      "inputs": [
        {
          "internalType": "address",
          "name": "initialOwner",
          "type": "address"
        }
      ],
      "stateMutability": "nonpayable",
      "type": "constructor"
    },
    {
      "inputs": [
        {
          "internalType": "address",
          "name": "sender",
          "type": "address"
        },
        {
          "internalType": "uint256",
          "name": "tokenId",
          "type": "uint256"
        },
        {
          "internalType": "address",
          "name": "owner",
          "type": "address"
        }
      ],
      "name": "ERC721IncorrectOwner",
      "type": "error"
    },
    {
      "inputs": [
        {
          "internalType": "address",
          "name": "operator",
          "type": "address"
        },
        {
          "internalType": "uint256",
          "name": "tokenId",
          "type": "uint256"
        }
      ],
      "name": "ERC721InsufficientApproval",
      "type": "error"
    },
    {
      "inputs": [
        {
          "internalType": "address",
          "name": "approver",
          "type": "address"
        }
      ],
      "name": "ERC721InvalidApprover",
      "type": "error"
    },
    {
      "inputs": [
        {
          "internalType": "address",
          "name": "operator",
          "type": "address"
        }
      ],
      "name": "ERC721InvalidOperator",
      "type": "error"
    },
    {
      "inputs": [
        {
          "internalType": "address",
          "name": "owner",
          "type": "address"
        }
      ],
      "name": "ERC721InvalidOwner",
      "type": "error"
    },
    {
      "inputs": [
        {
          "internalType": "address",
          "name": "receiver",
          "type": "address"
        }
      ],
      "name": "ERC721InvalidReceiver",
      "type": "error"
    },
    {
      "inputs": [
        {
          "internalType": "address",
          "name": "sender",
          "type": "address"
        }
      ],
      "name": "ERC721InvalidSender",
      "type": "error"
    },
    {
      "inputs": [
        {
          "internalType": "uint256",
          "name": "tokenId",
          "type": "uint256"
        }
      ],
      "name": "ERC721NonexistentToken",
      "type": "error"
    },
    {
      "inputs": [
        {
          "internalType": "address",
          "name": "owner",
          "type": "address"
        }
      ],
      "name": "OwnableInvalidOwner",
      "type": "error"
    },
    {
      "inputs": [
        {
          "internalType": "address",
          "name": "account",
          "type": "address"
        }
      ],
      "name": "OwnableUnauthorizedAccount",
      "type": "error"
    },
    {
      "anonymous": false,
      "inputs": [
        {
          "indexed": true,
          "internalType": "address",
          "name": "owner",
          "type": "address"
        },
        {
          "indexed": true,
          "internalType": "address",
          "name": "approved",
          "type": "address"
        },
        {
          "indexed": true,
          "internalType": "uint256",
          "name": "tokenId",
          "type": "uint256"
        }
      ],
      "name": "Approval",
      "type": "event"
    },
    {
      "anonymous": false,
      "inputs": [
        {
          "indexed": true,
          "internalType": "address",
          "name": "owner",
          "type": "address"
        },
        {
          "indexed": true,
          "internalType": "address",
          "name": "operator",
          "type": "address"
        },
        {
          "indexed": false,
          "internalType": "bool",
          "name": "approved",
          "type": "bool"
        }
      ],
      "name": "ApprovalForAll",
      "type": "event"
    },
    {
      "anonymous": false,
      "inputs": [
        {
          "indexed": false,
          "internalType": "uint256",
          "name": "_fromTokenId",
          "type": "uint256"
        },
        {
          "indexed": false,
          "internalType": "uint256",
          "name": "_toTokenId",
          "type": "uint256"
        }
      ],
      "name": "BatchMetadataUpdate",
      "type": "event"
    },
    {
      "anonymous": false,
      "inputs": [
        {
          "indexed": true,
          "internalType": "address",
          "name": "newAddress",
          "type": "address"
        }
      ],
      "name": "CommunityPoolAddressUpdated",
      "type": "event"
    },
    {
      "anonymous": false,
      "inputs": [
        {
          "indexed": false,
          "internalType": "uint256",
          "name": "_tokenId",
          "type": "uint256"
        }
      ],
      "name": "MetadataUpdate",
      "type": "event"
    },
    {
      "anonymous": false,
      "inputs": [
        {
          "indexed": true,
          "internalType": "address",
          "name": "recipient",
          "type": "address"
        },
        {
          "indexed": true,
          "internalType": "uint256",
          "name": "tokenId",
          "type": "uint256"
        },
        {
          "indexed": false,
          "internalType": "string",
          "name": "tokenURI",
          "type": "string"
        }
      ],
      "name": "NFTMinted",
      "type": "event"
    },
    {
      "anonymous": false,
      "inputs": [
        {
          "indexed": true,
          "internalType": "address",
          "name": "previousOwner",
          "type": "address"
        },
        {
          "indexed": true,
          "internalType": "address",
          "name": "newOwner",
          "type": "address"
        }
      ],
      "name": "OwnershipTransferred",
      "type": "event"
    },
    {
      "anonymous": false,
      "inputs": [
        {
          "indexed": true,
          "internalType": "address",
          "name": "from",
          "type": "address"
        },
        {
          "indexed": true,
          "internalType": "address",
          "name": "to",
          "type": "address"
        },
        {
          "indexed": true,
          "internalType": "uint256",
          "name": "tokenId",
          "type": "uint256"
        }
      ],
      "name": "Transfer",
      "type": "event"
    },
    {
      "inputs": [
        {
          "internalType": "address",
          "name": "to",
          "type": "address"
        },
        {
          "internalType": "uint256",
          "name": "tokenId",
          "type": "uint256"
        }
      ],
      "name": "approve",
      "outputs": [],
      "stateMutability": "nonpayable",
      "type": "function"
    },
    {
      "inputs": [
        {
          "internalType": "address",
          "name": "owner",
          "type": "address"
        }
      ],
      "name": "balanceOf",
      "outputs": [
        {
          "internalType": "uint256",
          "name": "",
          "type": "uint256"
        }
      ],
      "stateMutability": "view",
      "type": "function"
    },
    {
      "inputs": [],
      "name": "communityPoolAddress",
      "outputs": [
        {
          "internalType": "address",
          "name": "",
          "type": "address"
        }
      ],
      "stateMutability": "view",
      "type": "function"
    },
    {
      "inputs": [
        {
          "internalType": "uint256",
          "name": "tokenId",
          "type": "uint256"
        }
      ],
      "name": "getApproved",
      "outputs": [
        {
          "internalType": "address",
          "name": "",
          "type": "address"
        }
      ],
      "stateMutability": "view",
      "type": "function"
    },
    {
      "inputs": [
        {
          "internalType": "address",
          "name": "owner",
          "type": "address"
        },
        {
          "internalType": "address",
          "name": "operator",
          "type": "address"
        }
      ],
      "name": "isApprovedForAll",
      "outputs": [
        {
          "internalType": "bool",
          "name": "",
          "type": "bool"
        }
      ],
      "stateMutability": "view",
      "type": "function"
    },
    {
      "inputs": [
        {
          "internalType": "address",
          "name": "recipient",
          "type": "address"
        },
        {
          "internalType": "string",
          "name": "tokenURI",
          "type": "string"
        }
      ],
      "name": "mintNFT",
      "outputs": [
        {
          "internalType": "uint256",
          "name": "",
          "type": "uint256"
        }
      ],
      "stateMutability": "nonpayable",
      "type": "function"
    },
    {
      "inputs": [],
      "name": "name",
      "outputs": [
        {
          "internalType": "string",
          "name": "",
          "type": "string"
        }
      ],
      "stateMutability": "view",
      "type": "function"
    },
    {
      "inputs": [],
      "name": "owner",
      "outputs": [
        {
          "internalType": "address",
          "name": "",
          "type": "address"
        }
      ],
      "stateMutability": "view",
      "type": "function"
    },
    {
      "inputs": [
        {
          "internalType": "uint256",
          "name": "tokenId",
          "type": "uint256"
        }
      ],
      "name": "ownerOf",
      "outputs": [
        {
          "internalType": "address",
          "name": "",
          "type": "address"
        }
      ],
      "stateMutability": "view",
      "type": "function"
    },
    {
      "inputs": [],
      "name": "renounceOwnership",
      "outputs": [],
      "stateMutability": "nonpayable",
      "type": "function"
    },
    {
      "inputs": [
        {
          "internalType": "address",
          "name": "from",
          "type": "address"
        },
        {
          "internalType": "address",
          "name": "to",
          "type": "address"
        },
        {
          "internalType": "uint256",
          "name": "tokenId",
          "type": "uint256"
        }
      ],
      "name": "safeTransferFrom",
      "outputs": [],
      "stateMutability": "nonpayable",
      "type": "function"
    },
    {
      "inputs": [
        {
          "internalType": "address",
          "name": "from",
          "type": "address"
        },
        {
          "internalType": "address",
          "name": "to",
          "type": "address"
        },
        {
          "internalType": "uint256",
          "name": "tokenId",
          "type": "uint256"
        },
        {
          "internalType": "bytes",
          "name": "data",
          "type": "bytes"
        }
      ],
      "name": "safeTransferFrom",
      "outputs": [],
      "stateMutability": "nonpayable",
      "type": "function"
    },
    {
      "inputs": [
        {
          "internalType": "address",
          "name": "operator",
          "type": "address"
        },
        {
          "internalType": "bool",
          "name": "approved",
          "type": "bool"
        }
      ],
      "name": "setApprovalForAll",
      "outputs": [],
      "stateMutability": "nonpayable",
      "type": "function"
    },
    {
      "inputs": [
        {
          "internalType": "address",
          "name": "_communityPoolAddress",
          "type": "address"
        }
      ],
      "name": "setCommunityPoolAddress",
      "outputs": [],
      "stateMutability": "nonpayable",
      "type": "function"
    },
    {
      "inputs": [
        {
          "internalType": "bytes4",
          "name": "interfaceId",
          "type": "bytes4"
        }
      ],
      "name": "supportsInterface",
      "outputs": [
        {
          "internalType": "bool",
          "name": "",
          "type": "bool"
        }
      ],
      "stateMutability": "view",
      "type": "function"
    },
    {
      "inputs": [],
      "name": "symbol",
      "outputs": [
        {
          "internalType": "string",
          "name": "",
          "type": "string"
        }
      ],
      "stateMutability": "view",
      "type": "function"
    },
    {
      "inputs": [
        {
          "internalType": "uint256",
          "name": "tokenId",
          "type": "uint256"
        }
      ],
      "name": "tokenURI",
      "outputs": [
        {
          "internalType": "string",
          "name": "",
          "type": "string"
        }
      ],
      "stateMutability": "view",
      "type": "function"
    },
    {
      "inputs": [
        {
          "internalType": "address",
          "name": "from",
          "type": "address"
        },
        {
          "internalType": "address",
          "name": "to",
          "type": "address"
        },
        {
          "internalType": "uint256",
          "name": "tokenId",
          "type": "uint256"
        }
      ],
      "name": "transferFrom",
      "outputs": [],
      "stateMutability": "nonpayable",
      "type": "function"
    },
    {
      "inputs": [
        {
          "internalType": "address",
          "name": "newOwner",
          "type": "address"
        }
      ],
      "name": "transferOwnership",
      "outputs": [],
      "stateMutability": "nonpayable",
      "type": "function"
    }
  ],
  "bytecode": "0x608060405234801561001057600080fd5b50604051612e7f380380612e7f83398181016040528101906100329190610272565b806040518060400160405280601381526020017f43796265724a616d436f6e7472696275746f72000000000000000000000000008152506040518060400160405280600381526020017f434a43000000000000000000000000000000000000000000000000000000000081525081600090816100ae91906104ef565b5080600190816100be91906104ef565b505050600073ffffffffffffffffffffffffffffffffffffffff168173ffffffffffffffffffffffffffffffffffffffff16036101335760006040517f1e4fbdf700000000000000000000000000000000000000000000000000000000815260040161012a91906105d0565b60405180910390fd5b6101428161014960201b60201c565b50506105eb565b6000600760009054906101000a900473ffffffffffffffffffffffffffffffffffffffff16905081600760006101000a81548173ffffffffffffffffffffffffffffffffffffffff021916908373ffffffffffffffffffffffffffffffffffffffff1602179055508173ffffffffffffffffffffffffffffffffffffffff168173ffffffffffffffffffffffffffffffffffffffff167f8be0079c531659141344cd1fd0a4f28419497f9722a3daafe3b4186f6b6457e060405160405180910390a35050565b600080fd5b600073ffffffffffffffffffffffffffffffffffffffff82169050919050565b600061023f82610214565b9050919050565b61024f81610234565b811461025a57600080fd5b50565b60008151905061026c81610246565b92915050565b6000602082840312156102885761028761020f565b5b60006102968482850161025d565b91505092915050565b600081519050919050565b7f4e487b7100000000000000000000000000000000000000000000000000000000600052604160045260246000fd5b7f4e487b7100000000000000000000000000000000000000000000000000000000600052602260045260246000fd5b6000600282049050600182168061032057607f821691505b602082108103610333576103326102d9565b5b50919050565b60008190508160005260206000209050919050565b60006020601f8301049050919050565b600082821b905092915050565b60006008830261039b7fffffffffffffffffffffffffffffffffffffffffffffffffffffffffffffffff8261035e565b6103a5868361035e565b95508019841693508086168417925050509392505050565b6000819050919050565b6000819050919050565b60006103ec6103e76103e2846103bd565b6103c7565b6103bd565b9050919050565b6000819050919050565b610406836103d1565b61041a610412826103f3565b84845461036b565b825550505050565b600090565b61042f610422565b61043a8184846103fd565b505050565b5b8181101561045e57610453600082610427565b600181019050610440565b5050565b601f8211156104a35761047481610339565b61047d8461034e565b8101602085101561048c578190505b6104a06104988561034e565b83018261043f565b50505b505050565b600082821c905092915050565b60006104c6600019846008026104a8565b1980831691505092915050565b60006104df83836104b5565b9150826002028217905092915050565b6104f88261029f565b67ffffffffffffffff811115610511576105106102aa565b5b61051b8254610308565b610526828285610462565b600060209050601f8311600181146105595760008415610547578287015190505b61055185826104d3565b8655506105b9565b601f19841661056786610339565b60005b8281101561058f5784890151825560018201915060208501945060208101905061056a565b868310156105ac57848901516105a8601f8916826104b5565b8355505b6001600288020188555050505b505050505050565b6105ca81610234565b82525050565b60006020820190506105e560008301846105c1565b92915050565b612885806105fa6000396000f3fe608060405234801561001057600080fd5b50600436106101215760003560e01c80638da5cb5b116100ad578063e985e9c511610071578063e985e9c514610306578063ea02db0f14610336578063eacabe1414610354578063f2fde38b14610384578063fdf70570146103a057610121565b80638da5cb5b1461026257806395d89b4114610280578063a22cb4651461029e578063b88d4fde146102ba578063c87b56dd146102d657610121565b806323b872dd116100f457806323b872dd146101c057806342842e0e146101dc5780636352211e146101f857806370a0823114610228578063715018a61461025857610121565b806301ffc9a71461012657806306fdde0314610156578063081812fc14610174578063095ea7b3146101a4575b600080fd5b610140600480360381019061013b9190611c71565b6103bc565b60405161014d9190611cb9565b60405180910390f35b61015e61041d565b60405161016b9190611d64565b60405180910390f35b61018e60048036038101906101899190611dbc565b6104af565b60405161019b9190611e2a565b60405180910390f35b6101be60048036038101906101b99190611e71565b6104cb565b005b6101da60048036038101906101d59190611eb1565b6104e1565b005b6101f660048036038101906101f19190611eb1565b6105e3565b005b610212600480360381019061020d9190611dbc565b610603565b60405161021f9190611e2a565b60405180910390f35b610242600480360381019061023d9190611f04565b610615565b60405161024f9190611f40565b60405180910390f35b6102606106cf565b005b61026a6106e3565b6040516102779190611e2a565b60405180910390f35b61028861070d565b6040516102959190611d64565b60405180910390f35b6102b860048036038101906102b39190611f87565b61079f565b005b6102d460048036038101906102cf91906120fc565b6107b5565b005b6102f060048036038101906102eb9190611dbc565b6107da565b6040516102fd9190611d64565b60405180910390f35b610320600480360381019061031b919061217f565b6108ed565b60405161032d9190611cb9565b60405180910390f35b61033e610981565b60405161034b9190611e2a565b60405180910390f35b61036e60048036038101906103699190612260565b6109a7565b60405161037b9190611f40565b60405180910390f35b61039e60048036038101906103999190611f04565b610ac1565b005b6103ba60048036038101906103b59190611f04565b610b47565b005b6000634906490660e01b7bffffffffffffffffffffffffffffffffffffffffffffffffffffffff1916827bffffffffffffffffffffffffffffffffffffffffffffffffffffffff19161480610416575061041582610bd6565b5b9050919050565b60606000805461042c906122eb565b80601f0160208091040260200160405190810160405280929190818152602001828054610458906122eb565b80156104a55780601f1061047a576101008083540402835291602001916104a5565b820191906000526020600020905b81548152906001019060200180831161048857829003601f168201915b5050505050905090565b60006104ba82610cb8565b506104c482610d40565b9050919050565b6104dd82826104d8610d7d565b610d85565b5050565b600073ffffffffffffffffffffffffffffffffffffffff168273ffffffffffffffffffffffffffffffffffffffff16036105535760006040517f64a0ae9200000000000000000000000000000000000000000000000000000000815260040161054a9190611e2a565b60405180910390fd5b60006105678383610562610d7d565b610d97565b90508373ffffffffffffffffffffffffffffffffffffffff168173ffffffffffffffffffffffffffffffffffffffff16146105dd578382826040517f64283d7b0000000000000000000000000000000000000000000000000000000081526004016105d49392919061231c565b60405180910390fd5b50505050565b6105fe838383604051806020016040528060008152506107b5565b505050565b600061060e82610cb8565b9050919050565b60008073ffffffffffffffffffffffffffffffffffffffff168273ffffffffffffffffffffffffffffffffffffffff16036106885760006040517f89c62b6400000000000000000000000000000000000000000000000000000000815260040161067f9190611e2a565b60405180910390fd5b600360008373ffffffffffffffffffffffffffffffffffffffff1673ffffffffffffffffffffffffffffffffffffffff168152602001908152602001600020549050919050565b6106d7610fb1565b6106e16000611038565b565b6000600760009054906101000a900473ffffffffffffffffffffffffffffffffffffffff16905090565b60606001805461071c906122eb565b80601f0160208091040260200160405190810160405280929190818152602001828054610748906122eb565b80156107955780601f1061076a57610100808354040283529160200191610795565b820191906000526020600020905b81548152906001019060200180831161077857829003601f168201915b5050505050905090565b6107b16107aa610d7d565b83836110fe565b5050565b6107c08484846104e1565b6107d46107cb610d7d565b8585858561126d565b50505050565b60606107e582610cb8565b506000600660008481526020019081526020016000208054610806906122eb565b80601f0160208091040260200160405190810160405280929190818152602001828054610832906122eb565b801561087f5780601f106108545761010080835404028352916020019161087f565b820191906000526020600020905b81548152906001019060200180831161086257829003601f168201915b50505050509050600061089061141e565b905060008151036108a55781925050506108e8565b6000825111156108da5780826040516020016108c292919061238f565b604051602081830303815290604052925050506108e8565b6108e384611435565b925050505b919050565b6000600560008473ffffffffffffffffffffffffffffffffffffffff1673ffffffffffffffffffffffffffffffffffffffff16815260200190815260200160002060008373ffffffffffffffffffffffffffffffffffffffff1673ffffffffffffffffffffffffffffffffffffffff16815260200190815260200160002060009054906101000a900460ff16905092915050565b600960009054906101000a900473ffffffffffffffffffffffffffffffffffffffff1681565b6000600960009054906101000a900473ffffffffffffffffffffffffffffffffffffffff1673ffffffffffffffffffffffffffffffffffffffff163373ffffffffffffffffffffffffffffffffffffffff1614610a39576040517f08c379a0000000000000000000000000000000000000000000000000000000008152600401610a30906123ff565b60405180910390fd5b600060086000815480929190610a4e9061244e565b919050559050610a5e848261149e565b610a688184611597565b808473ffffffffffffffffffffffffffffffffffffffff167fd35bb95e09c04b219e35047ce7b7b300e3384264ef84a40456943dbc0fc17c1485604051610aaf9190611d64565b60405180910390a38091505092915050565b610ac9610fb1565b600073ffffffffffffffffffffffffffffffffffffffff168173ffffffffffffffffffffffffffffffffffffffff1603610b3b5760006040517f1e4fbdf7000000000000000000000000000000000000000000000000000000008152600401610b329190611e2a565b60405180910390fd5b610b4481611038565b50565b610b4f610fb1565b80600960006101000a81548173ffffffffffffffffffffffffffffffffffffffff021916908373ffffffffffffffffffffffffffffffffffffffff1602179055508073ffffffffffffffffffffffffffffffffffffffff167fc5ca1722c22b0f252e610ced534cb4e638625687f2dce278c50154281fb064a160405160405180910390a250565b60007f80ac58cd000000000000000000000000000000000000000000000000000000007bffffffffffffffffffffffffffffffffffffffffffffffffffffffff1916827bffffffffffffffffffffffffffffffffffffffffffffffffffffffff19161480610ca157507f5b5e139f000000000000000000000000000000000000000000000000000000007bffffffffffffffffffffffffffffffffffffffffffffffffffffffff1916827bffffffffffffffffffffffffffffffffffffffffffffffffffffffff1916145b80610cb15750610cb0826115f3565b5b9050919050565b600080610cc48361165d565b9050600073ffffffffffffffffffffffffffffffffffffffff168173ffffffffffffffffffffffffffffffffffffffff1603610d3757826040517f7e273289000000000000000000000000000000000000000000000000000000008152600401610d2e9190611f40565b60405180910390fd5b80915050919050565b60006004600083815260200190815260200160002060009054906101000a900473ffffffffffffffffffffffffffffffffffffffff169050919050565b600033905090565b610d92838383600161169a565b505050565b600080610da38461165d565b9050600073ffffffffffffffffffffffffffffffffffffffff168373ffffffffffffffffffffffffffffffffffffffff1614610de557610de481848661185f565b5b600073ffffffffffffffffffffffffffffffffffffffff168173ffffffffffffffffffffffffffffffffffffffff1614610e7657610e2760008560008061169a565b6001600360008373ffffffffffffffffffffffffffffffffffffffff1673ffffffffffffffffffffffffffffffffffffffff168152602001908152602001600020600082825403925050819055505b600073ffffffffffffffffffffffffffffffffffffffff168573ffffffffffffffffffffffffffffffffffffffff1614610ef9576001600360008773ffffffffffffffffffffffffffffffffffffffff1673ffffffffffffffffffffffffffffffffffffffff168152602001908152602001600020600082825401925050819055505b846002600086815260200190815260200160002060006101000a81548173ffffffffffffffffffffffffffffffffffffffff021916908373ffffffffffffffffffffffffffffffffffffffff160217905550838573ffffffffffffffffffffffffffffffffffffffff168273ffffffffffffffffffffffffffffffffffffffff167fddf252ad1be2c89b69c2b068fc378daa952ba7f163c4a11628f55a4df523b3ef60405160405180910390a4809150509392505050565b610fb9610d7d565b73ffffffffffffffffffffffffffffffffffffffff16610fd76106e3565b73ffffffffffffffffffffffffffffffffffffffff161461103657610ffa610d7d565b6040517f118cdaa700000000000000000000000000000000000000000000000000000000815260040161102d9190611e2a565b60405180910390fd5b565b6000600760009054906101000a900473ffffffffffffffffffffffffffffffffffffffff16905081600760006101000a81548173ffffffffffffffffffffffffffffffffffffffff021916908373ffffffffffffffffffffffffffffffffffffffff1602179055508173ffffffffffffffffffffffffffffffffffffffff168173ffffffffffffffffffffffffffffffffffffffff167f8be0079c531659141344cd1fd0a4f28419497f9722a3daafe3b4186f6b6457e060405160405180910390a35050565b600073ffffffffffffffffffffffffffffffffffffffff168273ffffffffffffffffffffffffffffffffffffffff160361116f57816040517f5b08ba180000000000000000000000000000000000000000000000000000000081526004016111669190611e2a565b60405180910390fd5b80600560008573ffffffffffffffffffffffffffffffffffffffff1673ffffffffffffffffffffffffffffffffffffffff16815260200190815260200160002060008473ffffffffffffffffffffffffffffffffffffffff1673ffffffffffffffffffffffffffffffffffffffff16815260200190815260200160002060006101000a81548160ff0219169083151502179055508173ffffffffffffffffffffffffffffffffffffffff168373ffffffffffffffffffffffffffffffffffffffff167f17307eab39ab6107e8899845ad3d59bd9653f200f220920489ca2b5937696c31836040516112609190611cb9565b60405180910390a3505050565b60008373ffffffffffffffffffffffffffffffffffffffff163b1115611417578273ffffffffffffffffffffffffffffffffffffffff1663150b7a02868685856040518563ffffffff1660e01b81526004016112cc94939291906124eb565b6020604051808303816000875af192505050801561130857506040513d601f19601f82011682018060405250810190611305919061254c565b60015b61138c573d8060008114611338576040519150601f19603f3d011682016040523d82523d6000602084013e61133d565b606091505b50600081510361138457836040517f64a0ae9200000000000000000000000000000000000000000000000000000000815260040161137b9190611e2a565b60405180910390fd5b805181602001fd5b63150b7a0260e01b7bffffffffffffffffffffffffffffffffffffffffffffffffffffffff1916817bffffffffffffffffffffffffffffffffffffffffffffffffffffffff19161461141557836040517f64a0ae9200000000000000000000000000000000000000000000000000000000815260040161140c9190611e2a565b60405180910390fd5b505b5050505050565b606060405180602001604052806000815250905090565b606061144082610cb8565b50600061144b61141e565b9050600081511161146b5760405180602001604052806000815250611496565b8061147584611923565b60405160200161148692919061238f565b6040516020818303038152906040525b915050919050565b600073ffffffffffffffffffffffffffffffffffffffff168273ffffffffffffffffffffffffffffffffffffffff16036115105760006040517f64a0ae920000000000000000000000000000000000000000000000000000000081526004016115079190611e2a565b60405180910390fd5b600061151e83836000610d97565b9050600073ffffffffffffffffffffffffffffffffffffffff168173ffffffffffffffffffffffffffffffffffffffff16146115925760006040517f73c6ac6e0000000000000000000000000000000000000000000000000000000081526004016115899190611e2a565b60405180910390fd5b505050565b806006600084815260200190815260200160002090816115b79190612725565b507ff8e1a15aba9398e019f0b49df1a4fde98ee17ae345cb5f6b5e2c27f5033e8ce7826040516115e79190611f40565b60405180910390a15050565b60007f01ffc9a7000000000000000000000000000000000000000000000000000000007bffffffffffffffffffffffffffffffffffffffffffffffffffffffff1916827bffffffffffffffffffffffffffffffffffffffffffffffffffffffff1916149050919050565b60006002600083815260200190815260200160002060009054906101000a900473ffffffffffffffffffffffffffffffffffffffff169050919050565b80806116d35750600073ffffffffffffffffffffffffffffffffffffffff168273ffffffffffffffffffffffffffffffffffffffff1614155b156118075760006116e384610cb8565b9050600073ffffffffffffffffffffffffffffffffffffffff168373ffffffffffffffffffffffffffffffffffffffff161415801561174e57508273ffffffffffffffffffffffffffffffffffffffff168173ffffffffffffffffffffffffffffffffffffffff1614155b8015611761575061175f81846108ed565b155b156117a357826040517fa9fbf51f00000000000000000000000000000000000000000000000000000000815260040161179a9190611e2a565b60405180910390fd5b811561180557838573ffffffffffffffffffffffffffffffffffffffff168273ffffffffffffffffffffffffffffffffffffffff167f8c5be1e5ebec7d5bd14f71427d1e84f3dd0314c0f7b2291e5b200ac8c7c3b92560405160405180910390a45b505b836004600085815260200190815260200160002060006101000a81548173ffffffffffffffffffffffffffffffffffffffff021916908373ffffffffffffffffffffffffffffffffffffffff16021790555050505050565b61186a8383836119f1565b61191e57600073ffffffffffffffffffffffffffffffffffffffff168373ffffffffffffffffffffffffffffffffffffffff16036118df57806040517f7e2732890000000000000000000000000000000000000000000000000000000081526004016118d69190611f40565b60405180910390fd5b81816040517f177e802f0000000000000000000000000000000000000000000000000000000081526004016119159291906127f7565b60405180910390fd5b505050565b60606000600161193284611ab2565b01905060008167ffffffffffffffff81111561195157611950611fd1565b5b6040519080825280601f01601f1916602001820160405280156119835781602001600182028036833780820191505090505b509050600082602001820190505b6001156119e6578080600190039150507f3031323334353637383961626364656600000000000000000000000000000000600a86061a8153600a85816119da576119d9612820565b5b04945060008503611991575b819350505050919050565b60008073ffffffffffffffffffffffffffffffffffffffff168373ffffffffffffffffffffffffffffffffffffffff1614158015611aa957508273ffffffffffffffffffffffffffffffffffffffff168473ffffffffffffffffffffffffffffffffffffffff161480611a6a5750611a6984846108ed565b5b80611aa857508273ffffffffffffffffffffffffffffffffffffffff16611a9083610d40565b73ffffffffffffffffffffffffffffffffffffffff16145b5b90509392505050565b600080600090507a184f03e93ff9f4daa797ed6e38ed64bf6a1f0100000000000000008310611b10577a184f03e93ff9f4daa797ed6e38ed64bf6a1f0100000000000000008381611b0657611b05612820565b5b0492506040810190505b6d04ee2d6d415b85acef81000000008310611b4d576d04ee2d6d415b85acef81000000008381611b4357611b42612820565b5b0492506020810190505b662386f26fc100008310611b7c57662386f26fc100008381611b7257611b71612820565b5b0492506010810190505b6305f5e1008310611ba5576305f5e1008381611b9b57611b9a612820565b5b0492506008810190505b6127108310611bca576127108381611bc057611bbf612820565b5b0492506004810190505b60648310611bed5760648381611be357611be2612820565b5b0492506002810190505b600a8310611bfc576001810190505b80915050919050565b6000604051905090565b600080fd5b600080fd5b60007fffffffff0000000000000000000000000000000000000000000000000000000082169050919050565b611c4e81611c19565b8114611c5957600080fd5b50565b600081359050611c6b81611c45565b92915050565b600060208284031215611c8757611c86611c0f565b5b6000611c9584828501611c5c565b91505092915050565b60008115159050919050565b611cb381611c9e565b82525050565b6000602082019050611cce6000830184611caa565b92915050565b600081519050919050565b600082825260208201905092915050565b60005b83811015611d0e578082015181840152602081019050611cf3565b60008484015250505050565b6000601f19601f8301169050919050565b6000611d3682611cd4565b611d408185611cdf565b9350611d50818560208601611cf0565b611d5981611d1a565b840191505092915050565b60006020820190508181036000830152611d7e8184611d2b565b905092915050565b6000819050919050565b611d9981611d86565b8114611da457600080fd5b50565b600081359050611db681611d90565b92915050565b600060208284031215611dd257611dd1611c0f565b5b6000611de084828501611da7565b91505092915050565b600073ffffffffffffffffffffffffffffffffffffffff82169050919050565b6000611e1482611de9565b9050919050565b611e2481611e09565b82525050565b6000602082019050611e3f6000830184611e1b565b92915050565b611e4e81611e09565b8114611e5957600080fd5b50565b600081359050611e6b81611e45565b92915050565b60008060408385031215611e8857611e87611c0f565b5b6000611e9685828601611e5c565b9250506020611ea785828601611da7565b9150509250929050565b600080600060608486031215611eca57611ec9611c0f565b5b6000611ed886828701611e5c565b9350506020611ee986828701611e5c565b9250506040611efa86828701611da7565b9150509250925092565b600060208284031215611f1a57611f19611c0f565b5b6000611f2884828501611e5c565b91505092915050565b611f3a81611d86565b82525050565b6000602082019050611f556000830184611f31565b92915050565b611f6481611c9e565b8114611f6f57600080fd5b50565b600081359050611f8181611f5b565b92915050565b60008060408385031215611f9e57611f9d611c0f565b5b6000611fac85828601611e5c565b9250506020611fbd85828601611f72565b9150509250929050565b600080fd5b600080fd5b7f4e487b7100000000000000000000000000000000000000000000000000000000600052604160045260246000fd5b61200982611d1a565b810181811067ffffffffffffffff8211171561202857612027611fd1565b5b80604052505050565b600061203b611c05565b90506120478282612000565b919050565b600067ffffffffffffffff82111561206757612066611fd1565b5b61207082611d1a565b9050602081019050919050565b82818337600083830152505050565b600061209f61209a8461204c565b612031565b9050828152602081018484840111156120bb576120ba611fcc565b5b6120c684828561207d565b509392505050565b600082601f8301126120e3576120e2611fc7565b5b81356120f384826020860161208c565b91505092915050565b6000806000806080858703121561211657612115611c0f565b5b600061212487828801611e5c565b945050602061213587828801611e5c565b935050604061214687828801611da7565b925050606085013567ffffffffffffffff81111561216757612166611c14565b5b612173878288016120ce565b91505092959194509250565b6000806040838503121561219657612195611c0f565b5b60006121a485828601611e5c565b92505060206121b585828601611e5c565b9150509250929050565b600067ffffffffffffffff8211156121da576121d9611fd1565b5b6121e382611d1a565b9050602081019050919050565b60006122036121fe846121bf565b612031565b90508281526020810184848401111561221f5761221e611fcc565b5b61222a84828561207d565b509392505050565b600082601f83011261224757612246611fc7565b5b81356122578482602086016121f0565b91505092915050565b6000806040838503121561227757612276611c0f565b5b600061228585828601611e5c565b925050602083013567ffffffffffffffff8111156122a6576122a5611c14565b5b6122b285828601612232565b9150509250929050565b7f4e487b7100000000000000000000000000000000000000000000000000000000600052602260045260246000fd5b6000600282049050600182168061230357607f821691505b602082108103612316576123156122bc565b5b50919050565b60006060820190506123316000830186611e1b565b61233e6020830185611f31565b61234b6040830184611e1b565b949350505050565b600081905092915050565b600061236982611cd4565b6123738185612353565b9350612383818560208601611cf0565b80840191505092915050565b600061239b828561235e565b91506123a7828461235e565b91508190509392505050565b7f4f6e6c7920436f6d6d756e69747920506f6f6c2063616e206d696e7400000000600082015250565b60006123e9601c83611cdf565b91506123f4826123b3565b602082019050919050565b60006020820190508181036000830152612418816123dc565b9050919050565b7f4e487b7100000000000000000000000000000000000000000000000000000000600052601160045260246000fd5b600061245982611d86565b91507fffffffffffffffffffffffffffffffffffffffffffffffffffffffffffffffff820361248b5761248a61241f565b5b600182019050919050565b600081519050919050565b600082825260208201905092915050565b60006124bd82612496565b6124c781856124a1565b93506124d7818560208601611cf0565b6124e081611d1a565b840191505092915050565b60006080820190506125006000830187611e1b565b61250d6020830186611e1b565b61251a6040830185611f31565b818103606083015261252c81846124b2565b905095945050505050565b60008151905061254681611c45565b92915050565b60006020828403121561256257612561611c0f565b5b600061257084828501612537565b91505092915050565b60008190508160005260206000209050919050565b60006020601f8301049050919050565b600082821b905092915050565b6000600883026125db7fffffffffffffffffffffffffffffffffffffffffffffffffffffffffffffffff8261259e565b6125e5868361259e565b95508019841693508086168417925050509392505050565b6000819050919050565b600061262261261d61261884611d86565b6125fd565b611d86565b9050919050565b6000819050919050565b61263c83612607565b61265061264882612629565b8484546125ab565b825550505050565b600090565b612665612658565b612670818484612633565b505050565b5b818110156126945761268960008261265d565b600181019050612676565b5050565b601f8211156126d9576126aa81612579565b6126b38461258e565b810160208510156126c2578190505b6126d66126ce8561258e565b830182612675565b50505b505050565b600082821c905092915050565b60006126fc600019846008026126de565b1980831691505092915050565b600061271583836126eb565b9150826002028217905092915050565b61272e82611cd4565b67ffffffffffffffff81111561274757612746611fd1565b5b61275182546122eb565b61275c828285612698565b600060209050601f83116001811461278f576000841561277d578287015190505b6127878582612709565b8655506127ef565b601f19841661279d86612579565b60005b828110156127c5578489015182556001820191506020850194506020810190506127a0565b868310156127e257848901516127de601f8916826126eb565b8355505b6001600288020188555050505b505050505050565b600060408201905061280c6000830185611e1b565b6128196020830184611f31565b9392505050565b7f4e487b7100000000000000000000000000000000000000000000000000000000600052601260045260246000fdfea2646970667358221220c78c8273b7cf4054e961fd322c2d8ec51e3573889d3d3e3d1e791ed28d99f36764736f6c634300081a0033",
  "linkReferences": {},
  "deployedLinkReferences": {}
}