{
  "_format": "hh-sol-artifact-1",
  "contractName": "CommunityPrizePool",
  "sourceName": "contracts/communityPool.sol",
  "abi": [
    {
      "inputs": [
        {
          "internalType": "address",
          "name": "_priceFeedAddress",
          "type": "address"
        }
      ],
      "stateMutability": "nonpayable",
      "type": "constructor"
    },
    {
      "inputs": [
        {
          "internalType": "address",
          "name": "sender",
          "type": "address"
        },
        {
          "internalType": "uint256",
          "name": "tokenId",
          "type": "uint256"
        },
        {
          "internalType": "address",
          "name": "owner",
          "type": "address"
        }
      ],
      "name": "ERC721IncorrectOwner",
      "type": "error"
    },
    {
      "inputs": [
        {
          "internalType": "address",
          "name": "operator",
          "type": "address"
        },
        {
          "internalType": "uint256",
          "name": "tokenId",
          "type": "uint256"
        }
      ],
      "name": "ERC721InsufficientApproval",
      "type": "error"
    },
    {
      "inputs": [
        {
          "internalType": "address",
          "name": "approver",
          "type": "address"
        }
      ],
      "name": "ERC721InvalidApprover",
      "type": "error"
    },
    {
      "inputs": [
        {
          "internalType": "address",
          "name": "operator",
          "type": "address"
        }
      ],
      "name": "ERC721InvalidOperator",
      "type": "error"
    },
    {
      "inputs": [
        {
          "internalType": "address",
          "name": "owner",
          "type": "address"
        }
      ],
      "name": "ERC721InvalidOwner",
      "type": "error"
    },
    {
      "inputs": [
        {
          "internalType": "address",
          "name": "receiver",
          "type": "address"
        }
      ],
      "name": "ERC721InvalidReceiver",
      "type": "error"
    },
    {
      "inputs": [
        {
          "internalType": "address",
          "name": "sender",
          "type": "address"
        }
      ],
      "name": "ERC721InvalidSender",
      "type": "error"
    },
    {
      "inputs": [
        {
          "internalType": "uint256",
          "name": "tokenId",
          "type": "uint256"
        }
      ],
      "name": "ERC721NonexistentToken",
      "type": "error"
    },
    {
      "inputs": [
        {
          "internalType": "address",
          "name": "owner",
          "type": "address"
        }
      ],
      "name": "OwnableInvalidOwner",
      "type": "error"
    },
    {
      "inputs": [
        {
          "internalType": "address",
          "name": "account",
          "type": "address"
        }
      ],
      "name": "OwnableUnauthorizedAccount",
      "type": "error"
    },
    {
      "anonymous": false,
      "inputs": [
        {
          "indexed": true,
          "internalType": "address",
          "name": "owner",
          "type": "address"
        },
        {
          "indexed": true,
          "internalType": "address",
          "name": "approved",
          "type": "address"
        },
        {
          "indexed": true,
          "internalType": "uint256",
          "name": "tokenId",
          "type": "uint256"
        }
      ],
      "name": "Approval",
      "type": "event"
    },
    {
      "anonymous": false,
      "inputs": [
        {
          "indexed": true,
          "internalType": "address",
          "name": "owner",
          "type": "address"
        },
        {
          "indexed": true,
          "internalType": "address",
          "name": "operator",
          "type": "address"
        },
        {
          "indexed": false,
          "internalType": "bool",
          "name": "approved",
          "type": "bool"
        }
      ],
      "name": "ApprovalForAll",
      "type": "event"
    },
    {
      "anonymous": false,
      "inputs": [
        {
          "indexed": false,
          "internalType": "address",
          "name": "contributor",
          "type": "address"
        },
        {
          "indexed": false,
          "internalType": "uint256",
          "name": "amount",
          "type": "uint256"
        }
      ],
      "name": "ContributionMade",
      "type": "event"
    },
    {
      "anonymous": false,
      "inputs": [
        {
          "indexed": true,
          "internalType": "address",
          "name": "previousOwner",
          "type": "address"
        },
        {
          "indexed": true,
          "internalType": "address",
          "name": "newOwner",
          "type": "address"
        }
      ],
      "name": "OwnershipTransferred",
      "type": "event"
    },
    {
      "anonymous": false,
      "inputs": [
        {
          "indexed": false,
          "internalType": "address",
          "name": "team",
          "type": "address"
        },
        {
          "indexed": false,
          "internalType": "uint256",
          "name": "amount",
          "type": "uint256"
        }
      ],
      "name": "PrizeClaimed",
      "type": "event"
    },
    {
      "anonymous": false,
      "inputs": [
        {
          "indexed": false,
          "internalType": "address",
          "name": "team",
          "type": "address"
        }
      ],
      "name": "TeamAdded",
      "type": "event"
    },
    {
      "anonymous": false,
      "inputs": [
        {
          "indexed": true,
          "internalType": "address",
          "name": "from",
          "type": "address"
        },
        {
          "indexed": true,
          "internalType": "address",
          "name": "to",
          "type": "address"
        },
        {
          "indexed": true,
          "internalType": "uint256",
          "name": "tokenId",
          "type": "uint256"
        }
      ],
      "name": "Transfer",
      "type": "event"
    },
    {
      "inputs": [],
      "name": "MINIMUM_CONTRIBUTION",
      "outputs": [
        {
          "internalType": "uint256",
          "name": "",
          "type": "uint256"
        }
      ],
      "stateMutability": "view",
      "type": "function"
    },
    {
      "inputs": [],
      "name": "TIPPI_CONTRIBUTION",
      "outputs": [
        {
          "internalType": "uint256",
          "name": "",
          "type": "uint256"
        }
      ],
      "stateMutability": "view",
      "type": "function"
    },
    {
      "inputs": [
        {
          "internalType": "address",
          "name": "_team",
          "type": "address"
        }
      ],
      "name": "addEligibleTeam",
      "outputs": [],
      "stateMutability": "nonpayable",
      "type": "function"
    },
    {
      "inputs": [
        {
          "internalType": "address",
          "name": "to",
          "type": "address"
        },
        {
          "internalType": "uint256",
          "name": "tokenId",
          "type": "uint256"
        }
      ],
      "name": "approve",
      "outputs": [],
      "stateMutability": "nonpayable",
      "type": "function"
    },
    {
      "inputs": [
        {
          "internalType": "address",
          "name": "owner",
          "type": "address"
        }
      ],
      "name": "balanceOf",
      "outputs": [
        {
          "internalType": "uint256",
          "name": "",
          "type": "uint256"
        }
      ],
      "stateMutability": "view",
      "type": "function"
    },
    {
      "inputs": [],
      "name": "claimPrize",
      "outputs": [],
      "stateMutability": "nonpayable",
      "type": "function"
    },
    {
      "inputs": [],
      "name": "contribute",
      "outputs": [],
      "stateMutability": "payable",
      "type": "function"
    },
    {
      "inputs": [],
      "name": "contributeAsTippi",
      "outputs": [],
      "stateMutability": "payable",
      "type": "function"
    },
    {
      "inputs": [
        {
          "internalType": "address",
          "name": "",
          "type": "address"
        }
      ],
      "name": "eligibleTeams",
      "outputs": [
        {
          "internalType": "bool",
          "name": "",
          "type": "bool"
        }
      ],
      "stateMutability": "view",
      "type": "function"
    },
    {
      "inputs": [
        {
          "internalType": "uint256",
          "name": "tokenId",
          "type": "uint256"
        }
      ],
      "name": "getApproved",
      "outputs": [
        {
          "internalType": "address",
          "name": "",
          "type": "address"
        }
      ],
      "stateMutability": "view",
      "type": "function"
    },
    {
      "inputs": [
        {
          "internalType": "uint256",
          "name": "ethAmount",
          "type": "uint256"
        }
      ],
      "name": "getConversionRate",
      "outputs": [
        {
          "internalType": "uint256",
          "name": "",
          "type": "uint256"
        }
      ],
      "stateMutability": "view",
      "type": "function"
    },
    {
      "inputs": [],
      "name": "getEligibleTeamCount",
      "outputs": [
        {
          "internalType": "uint256",
          "name": "",
          "type": "uint256"
        }
      ],
      "stateMutability": "view",
      "type": "function"
    },
    {
      "inputs": [],
      "name": "getTeamAddresses",
      "outputs": [
        {
          "internalType": "address[]",
          "name": "",
          "type": "address[]"
        }
      ],
      "stateMutability": "view",
      "type": "function"
    },
    {
      "inputs": [
        {
          "internalType": "address",
          "name": "",
          "type": "address"
        }
      ],
      "name": "hasClaimedPrize",
      "outputs": [
        {
          "internalType": "bool",
          "name": "",
          "type": "bool"
        }
      ],
      "stateMutability": "view",
      "type": "function"
    },
    {
      "inputs": [
        {
          "internalType": "address",
          "name": "owner",
          "type": "address"
        },
        {
          "internalType": "address",
          "name": "operator",
          "type": "address"
        }
      ],
      "name": "isApprovedForAll",
      "outputs": [
        {
          "internalType": "bool",
          "name": "",
          "type": "bool"
        }
      ],
      "stateMutability": "view",
      "type": "function"
    },
    {
      "inputs": [],
      "name": "name",
      "outputs": [
        {
          "internalType": "string",
          "name": "",
          "type": "string"
        }
      ],
      "stateMutability": "view",
      "type": "function"
    },
    {
      "inputs": [],
      "name": "owner",
      "outputs": [
        {
          "internalType": "address",
          "name": "",
          "type": "address"
        }
      ],
      "stateMutability": "view",
      "type": "function"
    },
    {
      "inputs": [
        {
          "internalType": "uint256",
          "name": "tokenId",
          "type": "uint256"
        }
      ],
      "name": "ownerOf",
      "outputs": [
        {
          "internalType": "address",
          "name": "",
          "type": "address"
        }
      ],
      "stateMutability": "view",
      "type": "function"
    },
    {
      "inputs": [],
      "name": "prizePool",
      "outputs": [
        {
          "internalType": "uint256",
          "name": "",
          "type": "uint256"
        }
      ],
      "stateMutability": "view",
      "type": "function"
    },
    {
      "inputs": [],
      "name": "renounceOwnership",
      "outputs": [],
      "stateMutability": "nonpayable",
      "type": "function"
    },
    {
      "inputs": [
        {
          "internalType": "address",
          "name": "from",
          "type": "address"
        },
        {
          "internalType": "address",
          "name": "to",
          "type": "address"
        },
        {
          "internalType": "uint256",
          "name": "tokenId",
          "type": "uint256"
        }
      ],
      "name": "safeTransferFrom",
      "outputs": [],
      "stateMutability": "nonpayable",
      "type": "function"
    },
    {
      "inputs": [
        {
          "internalType": "address",
          "name": "from",
          "type": "address"
        },
        {
          "internalType": "address",
          "name": "to",
          "type": "address"
        },
        {
          "internalType": "uint256",
          "name": "tokenId",
          "type": "uint256"
        },
        {
          "internalType": "bytes",
          "name": "data",
          "type": "bytes"
        }
      ],
      "name": "safeTransferFrom",
      "outputs": [],
      "stateMutability": "nonpayable",
      "type": "function"
    },
    {
      "inputs": [
        {
          "internalType": "address",
          "name": "operator",
          "type": "address"
        },
        {
          "internalType": "bool",
          "name": "approved",
          "type": "bool"
        }
      ],
      "name": "setApprovalForAll",
      "outputs": [],
      "stateMutability": "nonpayable",
      "type": "function"
    },
    {
      "inputs": [
        {
          "internalType": "bytes4",
          "name": "interfaceId",
          "type": "bytes4"
        }
      ],
      "name": "supportsInterface",
      "outputs": [
        {
          "internalType": "bool",
          "name": "",
          "type": "bool"
        }
      ],
      "stateMutability": "view",
      "type": "function"
    },
    {
      "inputs": [],
      "name": "symbol",
      "outputs": [
        {
          "internalType": "string",
          "name": "",
          "type": "string"
        }
      ],
      "stateMutability": "view",
      "type": "function"
    },
    {
      "inputs": [
        {
          "internalType": "uint256",
          "name": "tokenId",
          "type": "uint256"
        }
      ],
      "name": "tokenURI",
      "outputs": [
        {
          "internalType": "string",
          "name": "",
          "type": "string"
        }
      ],
      "stateMutability": "view",
      "type": "function"
    },
    {
      "inputs": [
        {
          "internalType": "address",
          "name": "from",
          "type": "address"
        },
        {
          "internalType": "address",
          "name": "to",
          "type": "address"
        },
        {
          "internalType": "uint256",
          "name": "tokenId",
          "type": "uint256"
        }
      ],
      "name": "transferFrom",
      "outputs": [],
      "stateMutability": "nonpayable",
      "type": "function"
    },
    {
      "inputs": [
        {
          "internalType": "address",
          "name": "newOwner",
          "type": "address"
        }
      ],
      "name": "transferOwnership",
      "outputs": [],
      "stateMutability": "nonpayable",
      "type": "function"
    },
    {
      "inputs": [],
      "name": "withdrawRemainingFunds",
      "outputs": [],
      "stateMutability": "nonpayable",
      "type": "function"
    }
  ],
  "bytecode": "0x608060405234801561001057600080fd5b50604051613af5380380613af5833981810160405281019061003291906102b3565b336040518060400160405280601881526020017f436f6d6d756e697479506f6f6c436f6e7472696275746f7200000000000000008152506040518060400160405280600381526020017f435043000000000000000000000000000000000000000000000000000000000081525081600090816100ae9190610530565b5080600190816100be9190610530565b505050600073ffffffffffffffffffffffffffffffffffffffff168173ffffffffffffffffffffffffffffffffffffffff16036101335760006040517f1e4fbdf700000000000000000000000000000000000000000000000000000000815260040161012a9190610611565b60405180910390fd5b6101428161018a60201b60201c565b5080600760006101000a81548173ffffffffffffffffffffffffffffffffffffffff021916908373ffffffffffffffffffffffffffffffffffffffff1602179055505061062c565b6000600660009054906101000a900473ffffffffffffffffffffffffffffffffffffffff16905081600660006101000a81548173ffffffffffffffffffffffffffffffffffffffff021916908373ffffffffffffffffffffffffffffffffffffffff1602179055508173ffffffffffffffffffffffffffffffffffffffff168173ffffffffffffffffffffffffffffffffffffffff167f8be0079c531659141344cd1fd0a4f28419497f9722a3daafe3b4186f6b6457e060405160405180910390a35050565b600080fd5b600073ffffffffffffffffffffffffffffffffffffffff82169050919050565b600061028082610255565b9050919050565b61029081610275565b811461029b57600080fd5b50565b6000815190506102ad81610287565b92915050565b6000602082840312156102c9576102c8610250565b5b60006102d78482850161029e565b91505092915050565b600081519050919050565b7f4e487b7100000000000000000000000000000000000000000000000000000000600052604160045260246000fd5b7f4e487b7100000000000000000000000000000000000000000000000000000000600052602260045260246000fd5b6000600282049050600182168061036157607f821691505b6020821081036103745761037361031a565b5b50919050565b60008190508160005260206000209050919050565b60006020601f8301049050919050565b600082821b905092915050565b6000600883026103dc7fffffffffffffffffffffffffffffffffffffffffffffffffffffffffffffffff8261039f565b6103e6868361039f565b95508019841693508086168417925050509392505050565b6000819050919050565b6000819050919050565b600061042d610428610423846103fe565b610408565b6103fe565b9050919050565b6000819050919050565b61044783610412565b61045b61045382610434565b8484546103ac565b825550505050565b600090565b610470610463565b61047b81848461043e565b505050565b5b8181101561049f57610494600082610468565b600181019050610481565b5050565b601f8211156104e4576104b58161037a565b6104be8461038f565b810160208510156104cd578190505b6104e16104d98561038f565b830182610480565b50505b505050565b600082821c905092915050565b6000610507600019846008026104e9565b1980831691505092915050565b600061052083836104f6565b9150826002028217905092915050565b610539826102e0565b67ffffffffffffffff811115610552576105516102eb565b5b61055c8254610349565b6105678282856104a3565b600060209050601f83116001811461059a5760008415610588578287015190505b6105928582610514565b8655506105fa565b601f1984166105a88661037a565b60005b828110156105d0578489015182556001820191506020850194506020810190506105ab565b868310156105ed57848901516105e9601f8916826104f6565b8355505b6001600288020188555050505b505050505050565b61060b81610275565b82525050565b60006020820190506106266000830184610602565b92915050565b6134ba8061063b6000396000f3fe6080604052600436106101c25760003560e01c80638353aee7116100f7578063a52c98b011610095578063e985e9c511610064578063e985e9c514610635578063ef86ce8e14610672578063f2fde38b14610689578063fff9f7c7146106b2576101c2565b8063a52c98b014610588578063b88d4fde146105c5578063c87b56dd146105ee578063d7bb99ba1461062b576101c2565b80638da5cb5b116100d15780638da5cb5b146104e057806391483ec21461050b57806395d89b4114610534578063a22cb4651461055f576101c2565b80638353aee71461045f57806389e527711461048a5780638d0bba03146104b5576101c2565b80636352211e1161016457806370a082311161013e57806370a08231146103a3578063715018a6146103e0578063719ce73e146103f75780637616a95f14610422576101c2565b80636352211e146103125780636e5b6b281461034f57806370740ac91461038c576101c2565b8063095ea7b3116101a0578063095ea7b31461026c57806323b872dd1461029557806342842e0e146102be5780635332bbf6146102e7576101c2565b806301ffc9a7146101c757806306fdde0314610204578063081812fc1461022f575b600080fd5b3480156101d357600080fd5b506101ee60048036038101906101e99190612591565b6106bc565b6040516101fb91906125d9565b60405180910390f35b34801561021057600080fd5b5061021961079e565b6040516102269190612684565b60405180910390f35b34801561023b57600080fd5b50610256600480360381019061025191906126dc565b610830565b604051610263919061274a565b60405180910390f35b34801561027857600080fd5b50610293600480360381019061028e9190612791565b61084c565b005b3480156102a157600080fd5b506102bc60048036038101906102b791906127d1565b610862565b005b3480156102ca57600080fd5b506102e560048036038101906102e091906127d1565b610964565b005b3480156102f357600080fd5b506102fc610984565b6040516103099190612833565b60405180910390f35b34801561031e57600080fd5b50610339600480360381019061033491906126dc565b610aac565b604051610346919061274a565b60405180910390f35b34801561035b57600080fd5b50610376600480360381019061037191906126dc565b610abe565b6040516103839190612833565b60405180910390f35b34801561039857600080fd5b506103a1610b95565b005b3480156103af57600080fd5b506103ca60048036038101906103c5919061284e565b610e08565b6040516103d79190612833565b60405180910390f35b3480156103ec57600080fd5b506103f5610ec2565b005b34801561040357600080fd5b5061040c610ed6565b6040516104199190612833565b60405180910390f35b34801561042e57600080fd5b506104496004803603810190610444919061284e565b610edc565b60405161045691906125d9565b60405180910390f35b34801561046b57600080fd5b50610474610efc565b6040516104819190612833565b60405180910390f35b34801561049657600080fd5b5061049f610f09565b6040516104ac9190612939565b60405180910390f35b3480156104c157600080fd5b506104ca610f5a565b6040516104d79190612833565b60405180910390f35b3480156104ec57600080fd5b506104f5610f67565b604051610502919061274a565b60405180910390f35b34801561051757600080fd5b50610532600480360381019061052d919061284e565b610f91565b005b34801561054057600080fd5b506105496110b8565b6040516105569190612684565b60405180910390f35b34801561056b57600080fd5b5061058660048036038101906105819190612987565b61114a565b005b34801561059457600080fd5b506105af60048036038101906105aa919061284e565b611160565b6040516105bc91906125d9565b60405180910390f35b3480156105d157600080fd5b506105ec60048036038101906105e79190612afc565b611180565b005b3480156105fa57600080fd5b50610615600480360381019061061091906126dc565b6111a5565b6040516106229190612684565b60405180910390f35b61063361120e565b005b34801561064157600080fd5b5061065c60048036038101906106579190612b7f565b611308565b60405161066991906125d9565b60405180910390f35b34801561067e57600080fd5b5061068761139c565b005b34801561069557600080fd5b506106b060048036038101906106ab919061284e565b6114aa565b005b6106ba611530565b005b60007f80ac58cd000000000000000000000000000000000000000000000000000000007bffffffffffffffffffffffffffffffffffffffffffffffffffffffff1916827bffffffffffffffffffffffffffffffffffffffffffffffffffffffff1916148061078757507f5b5e139f000000000000000000000000000000000000000000000000000000007bffffffffffffffffffffffffffffffffffffffffffffffffffffffff1916827bffffffffffffffffffffffffffffffffffffffffffffffffffffffff1916145b80610797575061079682611632565b5b9050919050565b6060600080546107ad90612bee565b80601f01602080910402602001604051908101604052809291908181526020018280546107d990612bee565b80156108265780601f106107fb57610100808354040283529160200191610826565b820191906000526020600020905b81548152906001019060200180831161080957829003601f168201915b5050505050905090565b600061083b8261169c565b5061084582611724565b9050919050565b61085e8282610859611761565b611769565b5050565b600073ffffffffffffffffffffffffffffffffffffffff168273ffffffffffffffffffffffffffffffffffffffff16036108d45760006040517f64a0ae920000000000000000000000000000000000000000000000000000000081526004016108cb919061274a565b60405180910390fd5b60006108e883836108e3611761565b61177b565b90508373ffffffffffffffffffffffffffffffffffffffff168173ffffffffffffffffffffffffffffffffffffffff161461095e578382826040517f64283d7b00000000000000000000000000000000000000000000000000000000815260040161095593929190612c1f565b60405180910390fd5b50505050565b61097f83838360405180602001604052806000815250611180565b505050565b6000806000905060005b610996610f09565b51811015610aa457600960006109aa610f09565b83815181106109bc576109bb612c56565b5b602002602001015173ffffffffffffffffffffffffffffffffffffffff1673ffffffffffffffffffffffffffffffffffffffff16815260200190815260200160002060009054906101000a900460ff168015610a835750600a6000610a1f610f09565b8381518110610a3157610a30612c56565b5b602002602001015173ffffffffffffffffffffffffffffffffffffffff1673ffffffffffffffffffffffffffffffffffffffff16815260200190815260200160002060009054906101000a900460ff16155b15610a97578180610a9390612cb4565b9250505b808060010191505061098e565b508091505090565b6000610ab78261169c565b9050919050565b600080600760009054906101000a900473ffffffffffffffffffffffffffffffffffffffff1673ffffffffffffffffffffffffffffffffffffffff1663feaf968c6040518163ffffffff1660e01b815260040160a060405180830381865afa158015610b2e573d6000803e3d6000fd5b505050506040513d601f19601f82011682018060405250810190610b529190612d89565b50505091505060006402540be40082610b6b9190612e04565b9050670de0b6b3a76400008185610b829190612e04565b610b8c9190612e75565b92505050919050565b600960003373ffffffffffffffffffffffffffffffffffffffff1673ffffffffffffffffffffffffffffffffffffffff16815260200190815260200160002060009054906101000a900460ff16610c21576040517f08c379a0000000000000000000000000000000000000000000000000000000008152600401610c1890612ef2565b60405180910390fd5b600a60003373ffffffffffffffffffffffffffffffffffffffff1673ffffffffffffffffffffffffffffffffffffffff16815260200190815260200160002060009054906101000a900460ff1615610cae576040517f08c379a0000000000000000000000000000000000000000000000000000000008152600401610ca590612f5e565b60405180910390fd5b6000610cb8610984565b600854610cc59190612e75565b90506001600a60003373ffffffffffffffffffffffffffffffffffffffff1673ffffffffffffffffffffffffffffffffffffffff16815260200190815260200160002060006101000a81548160ff02191690831515021790555060003373ffffffffffffffffffffffffffffffffffffffff1682604051610d4590612faf565b60006040518083038185875af1925050503d8060008114610d82576040519150601f19603f3d011682016040523d82523d6000602084013e610d87565b606091505b5050905080610dcb576040517f08c379a0000000000000000000000000000000000000000000000000000000008152600401610dc290613010565b60405180910390fd5b7f95681e512bc0fe659e195e06c283eada494316f3d801213e48e7101af92bf7703383604051610dfc929190613030565b60405180910390a15050565b60008073ffffffffffffffffffffffffffffffffffffffff168273ffffffffffffffffffffffffffffffffffffffff1603610e7b5760006040517f89c62b64000000000000000000000000000000000000000000000000000000008152600401610e72919061274a565b60405180910390fd5b600360008373ffffffffffffffffffffffffffffffffffffffff1673ffffffffffffffffffffffffffffffffffffffff168152602001908152602001600020549050919050565b610eca611995565b610ed46000611a1c565b565b60085481565b60096020528060005260406000206000915054906101000a900460ff1681565b680d8d726b7177a8000081565b6060600067ffffffffffffffff811115610f2657610f256129d1565b5b604051908082528060200260200182016040528015610f545781602001602082028036833780820191505090505b50905090565b681b1ae4d6e2ef50000081565b6000600660009054906101000a900473ffffffffffffffffffffffffffffffffffffffff16905090565b610f99611995565b600960008273ffffffffffffffffffffffffffffffffffffffff1673ffffffffffffffffffffffffffffffffffffffff16815260200190815260200160002060009054906101000a900460ff1615611026576040517f08c379a000000000000000000000000000000000000000000000000000000000815260040161101d906130a5565b60405180910390fd5b6001600960008373ffffffffffffffffffffffffffffffffffffffff1673ffffffffffffffffffffffffffffffffffffffff16815260200190815260200160002060006101000a81548160ff0219169083151502179055507f3f5f1db80208f0d453083a86e16909cecc1e95e2618d5d927c93ace22b8200fc816040516110ad919061274a565b60405180910390a150565b6060600180546110c790612bee565b80601f01602080910402602001604051908101604052809291908181526020018280546110f390612bee565b80156111405780601f1061111557610100808354040283529160200191611140565b820191906000526020600020905b81548152906001019060200180831161112357829003601f168201915b5050505050905090565b61115c611155611761565b8383611ae2565b5050565b600a6020528060005260406000206000915054906101000a900460ff1681565b61118b848484610862565b61119f611196611761565b85858585611c51565b50505050565b60606111b08261169c565b5060006111bb611e02565b905060008151116111db5760405180602001604052806000815250611206565b806111e584611e19565b6040516020016111f6929190613101565b6040516020818303038152906040525b915050919050565b60003411611251576040517f08c379a000000000000000000000000000000000000000000000000000000000815260040161124890613197565b60405180910390fd5b600061125c34610abe565b9050681b1ae4d6e2ef5000008110156112aa576040517f08c379a00000000000000000000000000000000000000000000000000000000081526004016112a190613229565b60405180910390fd5b34600860008282546112bc9190613249565b925050819055506112cc33611ee7565b7f6770260ea820d2f539364e7617e021543aaf6d192f2fd2a47c20db6bd99a4eb933346040516112fd929190613030565b60405180910390a150565b6000600560008473ffffffffffffffffffffffffffffffffffffffff1673ffffffffffffffffffffffffffffffffffffffff16815260200190815260200160002060008373ffffffffffffffffffffffffffffffffffffffff1673ffffffffffffffffffffffffffffffffffffffff16815260200190815260200160002060009054906101000a900460ff16905092915050565b6113a4611995565b60006113ae610984565b146113ee576040517f08c379a00000000000000000000000000000000000000000000000000000000081526004016113e5906132ef565b60405180910390fd5b600047905060006113fd610f67565b73ffffffffffffffffffffffffffffffffffffffff168260405161142090612faf565b60006040518083038185875af1925050503d806000811461145d576040519150601f19603f3d011682016040523d82523d6000602084013e611462565b606091505b50509050806114a6576040517f08c379a000000000000000000000000000000000000000000000000000000000815260040161149d90613010565b60405180910390fd5b5050565b6114b2611995565b600073ffffffffffffffffffffffffffffffffffffffff168173ffffffffffffffffffffffffffffffffffffffff16036115245760006040517f1e4fbdf700000000000000000000000000000000000000000000000000000000815260040161151b919061274a565b60405180910390fd5b61152d81611a1c565b50565b611538611995565b6000341161157b576040517f08c379a000000000000000000000000000000000000000000000000000000000815260040161157290613197565b60405180910390fd5b600061158634610abe565b9050680d8d726b7177a800008110156115d4576040517f08c379a00000000000000000000000000000000000000000000000000000000081526004016115cb90613381565b60405180910390fd5b34600860008282546115e69190613249565b925050819055506115f633611ee7565b7f6770260ea820d2f539364e7617e021543aaf6d192f2fd2a47c20db6bd99a4eb93334604051611627929190613030565b60405180910390a150565b60007f01ffc9a7000000000000000000000000000000000000000000000000000000007bffffffffffffffffffffffffffffffffffffffffffffffffffffffff1916827bffffffffffffffffffffffffffffffffffffffffffffffffffffffff1916149050919050565b6000806116a883611f10565b9050600073ffffffffffffffffffffffffffffffffffffffff168173ffffffffffffffffffffffffffffffffffffffff160361171b57826040517f7e2732890000000000000000000000000000000000000000000000000000000081526004016117129190612833565b60405180910390fd5b80915050919050565b60006004600083815260200190815260200160002060009054906101000a900473ffffffffffffffffffffffffffffffffffffffff169050919050565b600033905090565b6117768383836001611f4d565b505050565b60008061178784611f10565b9050600073ffffffffffffffffffffffffffffffffffffffff168373ffffffffffffffffffffffffffffffffffffffff16146117c9576117c8818486612112565b5b600073ffffffffffffffffffffffffffffffffffffffff168173ffffffffffffffffffffffffffffffffffffffff161461185a5761180b600085600080611f4d565b6001600360008373ffffffffffffffffffffffffffffffffffffffff1673ffffffffffffffffffffffffffffffffffffffff168152602001908152602001600020600082825403925050819055505b600073ffffffffffffffffffffffffffffffffffffffff168573ffffffffffffffffffffffffffffffffffffffff16146118dd576001600360008773ffffffffffffffffffffffffffffffffffffffff1673ffffffffffffffffffffffffffffffffffffffff168152602001908152602001600020600082825401925050819055505b846002600086815260200190815260200160002060006101000a81548173ffffffffffffffffffffffffffffffffffffffff021916908373ffffffffffffffffffffffffffffffffffffffff160217905550838573ffffffffffffffffffffffffffffffffffffffff168273ffffffffffffffffffffffffffffffffffffffff167fddf252ad1be2c89b69c2b068fc378daa952ba7f163c4a11628f55a4df523b3ef60405160405180910390a4809150509392505050565b61199d611761565b73ffffffffffffffffffffffffffffffffffffffff166119bb610f67565b73ffffffffffffffffffffffffffffffffffffffff1614611a1a576119de611761565b6040517f118cdaa7000000000000000000000000000000000000000000000000000000008152600401611a11919061274a565b60405180910390fd5b565b6000600660009054906101000a900473ffffffffffffffffffffffffffffffffffffffff16905081600660006101000a81548173ffffffffffffffffffffffffffffffffffffffff021916908373ffffffffffffffffffffffffffffffffffffffff1602179055508173ffffffffffffffffffffffffffffffffffffffff168173ffffffffffffffffffffffffffffffffffffffff167f8be0079c531659141344cd1fd0a4f28419497f9722a3daafe3b4186f6b6457e060405160405180910390a35050565b600073ffffffffffffffffffffffffffffffffffffffff168273ffffffffffffffffffffffffffffffffffffffff1603611b5357816040517f5b08ba18000000000000000000000000000000000000000000000000000000008152600401611b4a919061274a565b60405180910390fd5b80600560008573ffffffffffffffffffffffffffffffffffffffff1673ffffffffffffffffffffffffffffffffffffffff16815260200190815260200160002060008473ffffffffffffffffffffffffffffffffffffffff1673ffffffffffffffffffffffffffffffffffffffff16815260200190815260200160002060006101000a81548160ff0219169083151502179055508173ffffffffffffffffffffffffffffffffffffffff168373ffffffffffffffffffffffffffffffffffffffff167f17307eab39ab6107e8899845ad3d59bd9653f200f220920489ca2b5937696c3183604051611c4491906125d9565b60405180910390a3505050565b60008373ffffffffffffffffffffffffffffffffffffffff163b1115611dfb578273ffffffffffffffffffffffffffffffffffffffff1663150b7a02868685856040518563ffffffff1660e01b8152600401611cb094939291906133f6565b6020604051808303816000875af1925050508015611cec57506040513d601f19601f82011682018060405250810190611ce99190613457565b60015b611d70573d8060008114611d1c576040519150601f19603f3d011682016040523d82523d6000602084013e611d21565b606091505b506000815103611d6857836040517f64a0ae92000000000000000000000000000000000000000000000000000000008152600401611d5f919061274a565b60405180910390fd5b805181602001fd5b63150b7a0260e01b7bffffffffffffffffffffffffffffffffffffffffffffffffffffffff1916817bffffffffffffffffffffffffffffffffffffffffffffffffffffffff191614611df957836040517f64a0ae92000000000000000000000000000000000000000000000000000000008152600401611df0919061274a565b60405180910390fd5b505b5050505050565b606060405180602001604052806000815250905090565b606060006001611e28846121d6565b01905060008167ffffffffffffffff811115611e4757611e466129d1565b5b6040519080825280601f01601f191660200182016040528015611e795781602001600182028036833780820191505090505b509050600082602001820190505b600115611edc578080600190039150507f3031323334353637383961626364656600000000000000000000000000000000600a86061a8153600a8581611ed057611ecf612e46565b5b04945060008503611e87575b819350505050919050565b6000600b6000815480929190611efc90612cb4565b919050559050611f0c8282612329565b5050565b60006002600083815260200190815260200160002060009054906101000a900473ffffffffffffffffffffffffffffffffffffffff169050919050565b8080611f865750600073ffffffffffffffffffffffffffffffffffffffff168273ffffffffffffffffffffffffffffffffffffffff1614155b156120ba576000611f968461169c565b9050600073ffffffffffffffffffffffffffffffffffffffff168373ffffffffffffffffffffffffffffffffffffffff161415801561200157508273ffffffffffffffffffffffffffffffffffffffff168173ffffffffffffffffffffffffffffffffffffffff1614155b801561201457506120128184611308565b155b1561205657826040517fa9fbf51f00000000000000000000000000000000000000000000000000000000815260040161204d919061274a565b60405180910390fd5b81156120b857838573ffffffffffffffffffffffffffffffffffffffff168273ffffffffffffffffffffffffffffffffffffffff167f8c5be1e5ebec7d5bd14f71427d1e84f3dd0314c0f7b2291e5b200ac8c7c3b92560405160405180910390a45b505b836004600085815260200190815260200160002060006101000a81548173ffffffffffffffffffffffffffffffffffffffff021916908373ffffffffffffffffffffffffffffffffffffffff16021790555050505050565b61211d838383612347565b6121d157600073ffffffffffffffffffffffffffffffffffffffff168373ffffffffffffffffffffffffffffffffffffffff160361219257806040517f7e2732890000000000000000000000000000000000000000000000000000000081526004016121899190612833565b60405180910390fd5b81816040517f177e802f0000000000000000000000000000000000000000000000000000000081526004016121c8929190613030565b60405180910390fd5b505050565b600080600090507a184f03e93ff9f4daa797ed6e38ed64bf6a1f0100000000000000008310612234577a184f03e93ff9f4daa797ed6e38ed64bf6a1f010000000000000000838161222a57612229612e46565b5b0492506040810190505b6d04ee2d6d415b85acef81000000008310612271576d04ee2d6d415b85acef8100000000838161226757612266612e46565b5b0492506020810190505b662386f26fc1000083106122a057662386f26fc10000838161229657612295612e46565b5b0492506010810190505b6305f5e10083106122c9576305f5e10083816122bf576122be612e46565b5b0492506008810190505b61271083106122ee5761271083816122e4576122e3612e46565b5b0492506004810190505b60648310612311576064838161230757612306612e46565b5b0492506002810190505b600a8310612320576001810190505b80915050919050565b612343828260405180602001604052806000815250612408565b5050565b60008073ffffffffffffffffffffffffffffffffffffffff168373ffffffffffffffffffffffffffffffffffffffff16141580156123ff57508273ffffffffffffffffffffffffffffffffffffffff168473ffffffffffffffffffffffffffffffffffffffff1614806123c057506123bf8484611308565b5b806123fe57508273ffffffffffffffffffffffffffffffffffffffff166123e683611724565b73ffffffffffffffffffffffffffffffffffffffff16145b5b90509392505050565b612412838361242c565b61242761241d611761565b6000858585611c51565b505050565b600073ffffffffffffffffffffffffffffffffffffffff168273ffffffffffffffffffffffffffffffffffffffff160361249e5760006040517f64a0ae92000000000000000000000000000000000000000000000000000000008152600401612495919061274a565b60405180910390fd5b60006124ac8383600061177b565b9050600073ffffffffffffffffffffffffffffffffffffffff168173ffffffffffffffffffffffffffffffffffffffff16146125205760006040517f73c6ac6e000000000000000000000000000000000000000000000000000000008152600401612517919061274a565b60405180910390fd5b505050565b6000604051905090565b600080fd5b600080fd5b60007fffffffff0000000000000000000000000000000000000000000000000000000082169050919050565b61256e81612539565b811461257957600080fd5b50565b60008135905061258b81612565565b92915050565b6000602082840312156125a7576125a661252f565b5b60006125b58482850161257c565b91505092915050565b60008115159050919050565b6125d3816125be565b82525050565b60006020820190506125ee60008301846125ca565b92915050565b600081519050919050565b600082825260208201905092915050565b60005b8381101561262e578082015181840152602081019050612613565b60008484015250505050565b6000601f19601f8301169050919050565b6000612656826125f4565b61266081856125ff565b9350612670818560208601612610565b6126798161263a565b840191505092915050565b6000602082019050818103600083015261269e818461264b565b905092915050565b6000819050919050565b6126b9816126a6565b81146126c457600080fd5b50565b6000813590506126d6816126b0565b92915050565b6000602082840312156126f2576126f161252f565b5b6000612700848285016126c7565b91505092915050565b600073ffffffffffffffffffffffffffffffffffffffff82169050919050565b600061273482612709565b9050919050565b61274481612729565b82525050565b600060208201905061275f600083018461273b565b92915050565b61276e81612729565b811461277957600080fd5b50565b60008135905061278b81612765565b92915050565b600080604083850312156127a8576127a761252f565b5b60006127b68582860161277c565b92505060206127c7858286016126c7565b9150509250929050565b6000806000606084860312156127ea576127e961252f565b5b60006127f88682870161277c565b93505060206128098682870161277c565b925050604061281a868287016126c7565b9150509250925092565b61282d816126a6565b82525050565b60006020820190506128486000830184612824565b92915050565b6000602082840312156128645761286361252f565b5b60006128728482850161277c565b91505092915050565b600081519050919050565b600082825260208201905092915050565b6000819050602082019050919050565b6128b081612729565b82525050565b60006128c283836128a7565b60208301905092915050565b6000602082019050919050565b60006128e68261287b565b6128f08185612886565b93506128fb83612897565b8060005b8381101561292c57815161291388826128b6565b975061291e836128ce565b9250506001810190506128ff565b5085935050505092915050565b6000602082019050818103600083015261295381846128db565b905092915050565b612964816125be565b811461296f57600080fd5b50565b6000813590506129818161295b565b92915050565b6000806040838503121561299e5761299d61252f565b5b60006129ac8582860161277c565b92505060206129bd85828601612972565b9150509250929050565b600080fd5b600080fd5b7f4e487b7100000000000000000000000000000000000000000000000000000000600052604160045260246000fd5b612a098261263a565b810181811067ffffffffffffffff82111715612a2857612a276129d1565b5b80604052505050565b6000612a3b612525565b9050612a478282612a00565b919050565b600067ffffffffffffffff821115612a6757612a666129d1565b5b612a708261263a565b9050602081019050919050565b82818337600083830152505050565b6000612a9f612a9a84612a4c565b612a31565b905082815260208101848484011115612abb57612aba6129cc565b5b612ac6848285612a7d565b509392505050565b600082601f830112612ae357612ae26129c7565b5b8135612af3848260208601612a8c565b91505092915050565b60008060008060808587031215612b1657612b1561252f565b5b6000612b248782880161277c565b9450506020612b358782880161277c565b9350506040612b46878288016126c7565b925050606085013567ffffffffffffffff811115612b6757612b66612534565b5b612b7387828801612ace565b91505092959194509250565b60008060408385031215612b9657612b9561252f565b5b6000612ba48582860161277c565b9250506020612bb58582860161277c565b9150509250929050565b7f4e487b7100000000000000000000000000000000000000000000000000000000600052602260045260246000fd5b60006002820490506001821680612c0657607f821691505b602082108103612c1957612c18612bbf565b5b50919050565b6000606082019050612c34600083018661273b565b612c416020830185612824565b612c4e604083018461273b565b949350505050565b7f4e487b7100000000000000000000000000000000000000000000000000000000600052603260045260246000fd5b7f4e487b7100000000000000000000000000000000000000000000000000000000600052601160045260246000fd5b6000612cbf826126a6565b91507fffffffffffffffffffffffffffffffffffffffffffffffffffffffffffffffff8203612cf157612cf0612c85565b5b600182019050919050565b600069ffffffffffffffffffff82169050919050565b612d1b81612cfc565b8114612d2657600080fd5b50565b600081519050612d3881612d12565b92915050565b6000819050919050565b612d5181612d3e565b8114612d5c57600080fd5b50565b600081519050612d6e81612d48565b92915050565b600081519050612d83816126b0565b92915050565b600080600080600060a08688031215612da557612da461252f565b5b6000612db388828901612d29565b9550506020612dc488828901612d5f565b9450506040612dd588828901612d74565b9350506060612de688828901612d74565b9250506080612df788828901612d29565b9150509295509295909350565b6000612e0f826126a6565b9150612e1a836126a6565b9250828202612e28816126a6565b91508282048414831517612e3f57612e3e612c85565b5b5092915050565b7f4e487b7100000000000000000000000000000000000000000000000000000000600052601260045260246000fd5b6000612e80826126a6565b9150612e8b836126a6565b925082612e9b57612e9a612e46565b5b828204905092915050565b7f5465616d206973206e6f7420656c696769626c65000000000000000000000000600082015250565b6000612edc6014836125ff565b9150612ee782612ea6565b602082019050919050565b60006020820190508181036000830152612f0b81612ecf565b9050919050565b7f5072697a6520616c726561647920636c61696d65640000000000000000000000600082015250565b6000612f486015836125ff565b9150612f5382612f12565b602082019050919050565b60006020820190508181036000830152612f7781612f3b565b9050919050565b600081905092915050565b50565b6000612f99600083612f7e565b9150612fa482612f89565b600082019050919050565b6000612fba82612f8c565b9150819050919050565b7f5472616e73666572206661696c65640000000000000000000000000000000000600082015250565b6000612ffa600f836125ff565b915061300582612fc4565b602082019050919050565b6000602082019050818103600083015261302981612fed565b9050919050565b6000604082019050613045600083018561273b565b6130526020830184612824565b9392505050565b7f5465616d20616c726561647920656c696769626c650000000000000000000000600082015250565b600061308f6015836125ff565b915061309a82613059565b602082019050919050565b600060208201905081810360008301526130be81613082565b9050919050565b600081905092915050565b60006130db826125f4565b6130e581856130c5565b93506130f5818560208601612610565b80840191505092915050565b600061310d82856130d0565b915061311982846130d0565b91508190509392505050565b7f436f6e747269627574696f6e206d75737420626520677265617465722074686160008201527f6e20300000000000000000000000000000000000000000000000000000000000602082015250565b60006131816023836125ff565b915061318c82613125565b604082019050919050565b600060208201905081810360008301526131b081613174565b9050919050565b7f436f6e747269627574696f6e206d757374206265206174206c6561737420353060008201527f3020555344000000000000000000000000000000000000000000000000000000602082015250565b60006132136025836125ff565b915061321e826131b7565b604082019050919050565b6000602082019050818103600083015261324281613206565b9050919050565b6000613254826126a6565b915061325f836126a6565b925082820190508082111561327757613276612c85565b5b92915050565b7f4e6f7420616c6c207465616d73206861766520636c61696d656420746865697260008201527f207072697a657300000000000000000000000000000000000000000000000000602082015250565b60006132d96027836125ff565b91506132e48261327d565b604082019050919050565b60006020820190508181036000830152613308816132cc565b9050919050565b7f5469707069277320636f6e747269627574696f6e206d7573742062652061742060008201527f6c65617374203235302055534400000000000000000000000000000000000000602082015250565b600061336b602d836125ff565b91506133768261330f565b604082019050919050565b6000602082019050818103600083015261339a8161335e565b9050919050565b600081519050919050565b600082825260208201905092915050565b60006133c8826133a1565b6133d281856133ac565b93506133e2818560208601612610565b6133eb8161263a565b840191505092915050565b600060808201905061340b600083018761273b565b613418602083018661273b565b6134256040830185612824565b818103606083015261343781846133bd565b905095945050505050565b60008151905061345181612565565b92915050565b60006020828403121561346d5761346c61252f565b5b600061347b84828501613442565b9150509291505056fea264697066735822122032cd1f2c84b728fa57c086b2ea5f604f29e8f36316bd8b3636bdae3edd918df864736f6c634300081a0033",
  "linkReferences": {},
  "deployedLinkReferences": {}
}